{
  "contractName": "dEmergency",
  "abi": [
    {
      "constant": true,
      "inputs": [
        {
          "name": "",
          "type": "address"
        }
      ],
      "name": "HospitalInfo",
      "outputs": [
        {
          "name": "location",
          "type": "string"
        },
        {
          "name": "mobileNumber",
          "type": "string"
        },
        {
          "name": "hospitalCapacity",
          "type": "uint256"
        },
        {
          "name": "hospitalAvailability",
          "type": "uint256"
        },
        {
          "name": "speciality",
          "type": "uint256"
        }
      ],
      "payable": false,
      "stateMutability": "view",
      "type": "function",
      "signature": "0x2a1a7abe"
    },
    {
      "constant": true,
      "inputs": [
        {
          "name": "",
          "type": "address"
        },
        {
          "name": "",
          "type": "address"
        }
      ],
      "name": "PatientHospital",
      "outputs": [
        {
          "name": "name",
          "type": "string"
        },
        {
          "name": "mobileNumber",
          "type": "string"
        }
      ],
      "payable": false,
      "stateMutability": "view",
      "type": "function",
      "signature": "0x6cd2f6b9"
    },
    {
      "inputs": [],
      "payable": true,
      "stateMutability": "payable",
      "type": "constructor",
      "signature": "constructor"
    },
    {
      "anonymous": false,
      "inputs": [
        {
          "indexed": false,
          "name": "hospital",
          "type": "address"
        },
        {
          "indexed": false,
          "name": "location",
          "type": "string"
        },
        {
          "indexed": false,
          "name": "mobileNumber",
          "type": "string"
        }
      ],
      "name": "InformHospital",
      "type": "event",
      "signature": "0x97c935ae7c8ed323f4541038e26aac0bbb7b18bd016c553d885861bba306ad99"
    },
    {
      "anonymous": false,
      "inputs": [
        {
          "indexed": false,
          "name": "hospital",
          "type": "address"
        },
        {
          "indexed": false,
          "name": "location",
          "type": "string"
        },
        {
          "indexed": false,
          "name": "mobileNumber",
          "type": "string"
        }
      ],
      "name": "InformPatient",
      "type": "event",
      "signature": "0xc35fae7e4476383956494f22248cd58c73f238bf01810ee1027769a348e80823"
    },
    {
      "constant": false,
      "inputs": [
        {
          "name": "_hospital",
          "type": "address"
        },
        {
          "name": "_location",
          "type": "string"
        },
        {
          "name": "_mobileNumber",
          "type": "string"
        },
        {
          "name": "_hospitalCapacity",
          "type": "uint256"
        },
        {
          "name": "_hospitalAvailability",
          "type": "uint256"
        },
        {
          "name": "_speciality",
          "type": "uint256"
        }
      ],
      "name": "addHospital",
      "outputs": [],
      "payable": false,
      "stateMutability": "nonpayable",
      "type": "function",
      "signature": "0xb39025c1"
    },
    {
      "constant": false,
      "inputs": [
        {
          "name": "location",
          "type": "string"
        },
        {
          "name": "_mobileNumber",
          "type": "string"
        },
        {
          "name": "_speciality",
          "type": "uint256"
        },
        {
          "name": "name",
          "type": "string"
        }
      ],
      "name": "addPatient",
      "outputs": [
        {
          "name": "",
          "type": "bool"
        }
      ],
      "payable": false,
      "stateMutability": "nonpayable",
      "type": "function",
      "signature": "0x42074765"
    },
    {
      "constant": false,
      "inputs": [
        {
          "name": "_patient",
          "type": "address"
        }
      ],
      "name": "discharge",
      "outputs": [
        {
          "name": "",
          "type": "bool"
        }
      ],
      "payable": false,
      "stateMutability": "nonpayable",
      "type": "function",
      "signature": "0x0231853a"
    },
    {
      "constant": false,
      "inputs": [
        {
          "name": "_hospital",
          "type": "address"
        },
        {
          "name": "_patient",
          "type": "address"
        }
      ],
      "name": "showPatientAllotment",
      "outputs": [
        {
          "components": [
            {
              "name": "name",
              "type": "string"
            },
            {
              "name": "mobileNumber",
              "type": "string"
            }
          ],
          "name": "",
          "type": "tuple"
        }
      ],
      "payable": false,
      "stateMutability": "nonpayable",
      "type": "function",
      "signature": "0x22a124e2"
    }
  ],
  "bytecode": "0x6080604052336000806101000a81548173ffffffffffffffffffffffffffffffffffffffff021916908373ffffffffffffffffffffffffffffffffffffffff1602179055506114d4806100536000396000f3fe608060405260043610610078576000357c0100000000000000000000000000000000000000000000000000000000900463ffffffff1680630231853a1461007d57806322a124e2146100ba5780632a1a7abe146100f757806342074765146101385780636cd2f6b914610175578063b39025c1146101b3575b600080fd5b34801561008957600080fd5b506100a4600480360361009f9190810190610ed7565b6101dc565b6040516100b1919061128d565b60405180910390f35b3480156100c657600080fd5b506100e160048036036100dc9190810190610f00565b61032d565b6040516100ee9190611340565b60405180910390f35b34801561010357600080fd5b5061011e60048036036101199190810190610ed7565b610508565b60405161012f9594939291906112df565b60405180910390f35b34801561014457600080fd5b5061015f600480360361015a9190810190610ff5565b61066e565b60405161016c919061128d565b60405180910390f35b34801561018157600080fd5b5061019c60048036036101979190810190610f00565b6109d1565b6040516101aa9291906112a8565b60405180910390f35b3480156101bf57600080fd5b506101da60048036036101d59190810190610f3c565b610b32565b005b6000803390506000600160008373ffffffffffffffffffffffffffffffffffffffff1673ffffffffffffffffffffffffffffffffffffffff168152602001908152602001600020600201541415151561023457600080fd5b60018060008373ffffffffffffffffffffffffffffffffffffffff1673ffffffffffffffffffffffffffffffffffffffff16815260200190815260200160002060030160008282540192505081905550600360008273ffffffffffffffffffffffffffffffffffffffff1673ffffffffffffffffffffffffffffffffffffffff16815260200190815260200160002060008473ffffffffffffffffffffffffffffffffffffffff1673ffffffffffffffffffffffffffffffffffffffff168152602001908152602001600020600080820160006103119190610d52565b6001820160006103219190610d52565b50506001915050919050565b610335610d9a565b600360008473ffffffffffffffffffffffffffffffffffffffff1673ffffffffffffffffffffffffffffffffffffffff16815260200190815260200160002060008373ffffffffffffffffffffffffffffffffffffffff1673ffffffffffffffffffffffffffffffffffffffff168152602001908152602001600020604080519081016040529081600082018054600181600116156101000203166002900480601f0160208091040260200160405190810160405280929190818152602001828054600181600116156101000203166002900480156104555780601f1061042a57610100808354040283529160200191610455565b820191906000526020600020905b81548152906001019060200180831161043857829003601f168201915b50505050508152602001600182018054600181600116156101000203166002900480601f0160208091040260200160405190810160405280929190818152602001828054600181600116156101000203166002900480156104f75780601f106104cc576101008083540402835291602001916104f7565b820191906000526020600020905b8154815290600101906020018083116104da57829003601f168201915b505050505081525050905092915050565b6001602052806000526040600020600091509050806000018054600181600116156101000203166002900480601f0160208091040260200160405190810160405280929190818152602001828054600181600116156101000203166002900480156105b45780601f10610589576101008083540402835291602001916105b4565b820191906000526020600020905b81548152906001019060200180831161059757829003601f168201915b505050505090806001018054600181600116156101000203166002900480601f0160208091040260200160405190810160405280929190818152602001828054600181600116156101000203166002900480156106525780601f1061062757610100808354040283529160200191610652565b820191906000526020600020905b81548152906001019060200180831161063557829003601f168201915b5050505050908060020154908060030154908060040154905085565b60008033905060006002876040518082805190602001908083835b6020831015156106ae5780518252602082019150602081019050602083039250610689565b6001836020036101000a038019825116818451168082178552505050505050905001915050908152602001604051809103902060009054906101000a900473ffffffffffffffffffffffffffffffffffffffff1690506000600160008373ffffffffffffffffffffffffffffffffffffffff1673ffffffffffffffffffffffffffffffffffffffff168152602001908152602001600020600201541415151561075657600080fd5b6000600160008373ffffffffffffffffffffffffffffffffffffffff1673ffffffffffffffffffffffffffffffffffffffff1681526020019081526020016000206003015411156109c25760018060008373ffffffffffffffffffffffffffffffffffffffff1673ffffffffffffffffffffffffffffffffffffffff16815260200190815260200160002060030160008282540392505081905550604080519081016040528085815260200187815250600360008373ffffffffffffffffffffffffffffffffffffffff1673ffffffffffffffffffffffffffffffffffffffff16815260200190815260200160002060008473ffffffffffffffffffffffffffffffffffffffff1673ffffffffffffffffffffffffffffffffffffffff168152602001908152602001600020600082015181600001908051906020019061089e929190610db4565b5060208201518160010190805190602001906108bb929190610db4565b509050507fc35fae7e4476383956494f22248cd58c73f238bf01810ee1027769a348e8082381600160008473ffffffffffffffffffffffffffffffffffffffff1673ffffffffffffffffffffffffffffffffffffffff168152602001908152602001600020600001600160008573ffffffffffffffffffffffffffffffffffffffff1673ffffffffffffffffffffffffffffffffffffffff16815260200190815260200160002060010160405161097493929190611248565b60405180910390a17f97c935ae7c8ed323f4541038e26aac0bbb7b18bd016c553d885861bba306ad998188886040516109af93929190611203565b60405180910390a16001925050506109c9565b6000925050505b949350505050565b600360205281600052604060002060205280600052604060002060009150915050806000018054600181600116156101000203166002900480601f016020809104026020016040519081016040528092919081815260200182805460018160011615610100020316600290048015610a8a5780601f10610a5f57610100808354040283529160200191610a8a565b820191906000526020600020905b815481529060010190602001808311610a6d57829003601f168201915b505050505090806001018054600181600116156101000203166002900480601f016020809104026020016040519081016040528092919081815260200182805460018160011615610100020316600290048015610b285780601f10610afd57610100808354040283529160200191610b28565b820191906000526020600020905b815481529060010190602001808311610b0b57829003601f168201915b5050505050905082565b6000809054906101000a900473ffffffffffffffffffffffffffffffffffffffff1673ffffffffffffffffffffffffffffffffffffffff163373ffffffffffffffffffffffffffffffffffffffff16141515610b8d57600080fd5b6000600160008873ffffffffffffffffffffffffffffffffffffffff1673ffffffffffffffffffffffffffffffffffffffff16815260200190815260200160002060020154141515610bde57600080fd5b60a06040519081016040528086815260200185815260200184815260200183815260200182815250600160008873ffffffffffffffffffffffffffffffffffffffff1673ffffffffffffffffffffffffffffffffffffffff1681526020019081526020016000206000820151816000019080519060200190610c61929190610db4565b506020820151816001019080519060200190610c7e929190610db4565b50604082015181600201556060820151816003015560808201518160040155905050856002866040518082805190602001908083835b602083101515610cd95780518252602082019150602081019050602083039250610cb4565b6001836020036101000a038019825116818451168082178552505050505050905001915050908152602001604051809103902060006101000a81548173ffffffffffffffffffffffffffffffffffffffff021916908373ffffffffffffffffffffffffffffffffffffffff160217905550505050505050565b50805460018160011615610100020316600290046000825580601f10610d785750610d97565b601f016020900490600052602060002090810190610d969190610e34565b5b50565b604080519081016040528060608152602001606081525090565b828054600181600116156101000203166002900490600052602060002090601f016020900481019282601f10610df557805160ff1916838001178555610e23565b82800160010185558215610e23579182015b82811115610e22578251825591602001919060010190610e07565b5b509050610e309190610e34565b5090565b610e5691905b80821115610e52576000816000905550600101610e3a565b5090565b90565b6000610e65823561142b565b905092915050565b600082601f8301121515610e8057600080fd5b8135610e93610e8e8261138f565b611362565b91508082526020830160208301858383011115610eaf57600080fd5b610eba838284611447565b50505092915050565b6000610ecf823561143d565b905092915050565b600060208284031215610ee957600080fd5b6000610ef784828501610e59565b91505092915050565b60008060408385031215610f1357600080fd5b6000610f2185828601610e59565b9250506020610f3285828601610e59565b9150509250929050565b60008060008060008060c08789031215610f5557600080fd5b6000610f6389828a01610e59565b965050602087013567ffffffffffffffff811115610f8057600080fd5b610f8c89828a01610e6d565b955050604087013567ffffffffffffffff811115610fa957600080fd5b610fb589828a01610e6d565b9450506060610fc689828a01610ec3565b9350506080610fd789828a01610ec3565b92505060a0610fe889828a01610ec3565b9150509295509295509295565b6000806000806080858703121561100b57600080fd5b600085013567ffffffffffffffff81111561102557600080fd5b61103187828801610e6d565b945050602085013567ffffffffffffffff81111561104e57600080fd5b61105a87828801610e6d565b935050604061106b87828801610ec3565b925050606085013567ffffffffffffffff81111561108857600080fd5b61109487828801610e6d565b91505092959194509250565b6110a9816113e3565b82525050565b6110b8816113f5565b82525050565b60006110c9826113d8565b8084526110dd816020860160208601611456565b6110e681611489565b602085010191505092915050565b60006110ff826113cd565b808452611113816020860160208601611456565b61111c81611489565b602085010191505092915050565b6000815460018116600081146111475760018114611167576111a8565b607f600283041680865260ff1983166020870152604086019350506111a8565b6002820480865260208601955061117d856113bb565b60005b8281101561119f57815481890152600182019150602081019050611180565b80880195505050505b505092915050565b600060408301600083015184820360008601526111cd82826110f4565b915050602083015184820360208601526111e782826110f4565b9150508091505092915050565b6111fd81611421565b82525050565b600060608201905061121860008301866110a0565b818103602083015261122a81856110be565b9050818103604083015261123e81846110be565b9050949350505050565b600060608201905061125d60008301866110a0565b818103602083015261126f818561112a565b90508181036040830152611283818461112a565b9050949350505050565b60006020820190506112a260008301846110af565b92915050565b600060408201905081810360008301526112c281856110f4565b905081810360208301526112d681846110f4565b90509392505050565b600060a08201905081810360008301526112f981886110f4565b9050818103602083015261130d81876110f4565b905061131c60408301866111f4565b61132960608301856111f4565b61133660808301846111f4565b9695505050505050565b6000602082019050818103600083015261135a81846111b0565b905092915050565b6000604051905081810181811067ffffffffffffffff8211171561138557600080fd5b8060405250919050565b600067ffffffffffffffff8211156113a657600080fd5b601f19601f8301169050602081019050919050565b60008160005260206000209050919050565b600081519050919050565b600081519050919050565b60006113ee82611401565b9050919050565b60008115159050919050565b600073ffffffffffffffffffffffffffffffffffffffff82169050919050565b6000819050919050565b600061143682611401565b9050919050565b6000819050919050565b82818337600083830152505050565b60005b83811015611474578082015181840152602081019050611459565b83811115611483576000848401525b50505050565b6000601f19601f830116905091905056fea265627a7a723058202cc85effce15392a1eb1a695c2c461f7bca28eb2cd05fa02124747d7535dfba76c6578706572696d656e74616cf50037",
  "source": "pragma solidity >=0.4.26;\npragma experimental ABIEncoderV2;\ncontract dEmergency {\n\n    address private creator;\n\n    struct Hospital{\n        string location;\n        string mobileNumber;\n        uint hospitalCapacity;\n        uint hospitalAvailability;\n        uint speciality;\n    }\n\n    struct Patient {\n        string name;\n        string mobileNumber;\n    }\n\n    mapping(address => Hospital) public HospitalInfo;\n    mapping(string => address) HospitalLoc;\n    //mapping(address => address) PatientHospital;\n    mapping(address => mapping(address =>Patient)) public PatientHospital;\n    event InformHospital(address hospital, string location, string mobileNumber);\n    event InformPatient(address hospital,string location, string mobileNumber);\n\n    constructor() public payable {\n        creator = msg.sender;\n\n    }\n\n    // function getHospitalInfo(address _hospital) public returns(uint,uint,string memory){\n\n    //     return (HospitalInfo[_hospital].hospitalAvailability,HospitalInfo[_hospital].hospitalCapacity,HospitalInfo[_hospital].location);\n    // }\n\n\n    function addHospital(address _hospital,string memory _location,string memory _mobileNumber,uint _hospitalCapacity,uint _hospitalAvailability,uint _speciality) public {\n        require(msg.sender == creator);\n        require(HospitalInfo[_hospital].hospitalCapacity ==0);\n        HospitalInfo[_hospital] = Hospital(_location, _mobileNumber, _hospitalCapacity, _hospitalAvailability,_speciality);\n        HospitalLoc[_location]=_hospital;\n\n\n    }\n\n\n    function addPatient(string memory location,string memory _mobileNumber,uint _speciality,string memory name) public returns(bool) {\n        address _patient = msg.sender;\n        address _hospital = HospitalLoc[location];\n\n        require(HospitalInfo[_hospital].hospitalCapacity != 0);\n\n        if(HospitalInfo[_hospital].hospitalAvailability > 0)\n        {\n\n            HospitalInfo[_hospital].hospitalAvailability -= 1;\n            //PatientHospital[_patient]=_hospital;\n\n            PatientHospital[_hospital][_patient] = Patient(name,_mobileNumber);\n            //events triggered,for dagger\n            emit InformPatient(_hospital,HospitalInfo[_hospital].location, HospitalInfo[_hospital].mobileNumber);\n            emit InformHospital(_hospital, location, _mobileNumber);\n\n          return true;\n\n\n        }\n        else\n        {\n        return false;\n        }\n\n\n    }\n\n    // function addPatient(address _patient,string memory location,string memory _mobileNumber,uint _speciality,string memory name) public returns(bool) {\n\n    //     address _hospital = HospitalLoc[location];\n\n    //     require(HospitalInfo[_hospital].hospitalCapacity != 0);\n\n    //     if(HospitalInfo[_hospital].hospitalAvailability > 0)\n    //     {\n\n    //         HospitalInfo[_hospital].hospitalAvailability -= 1;\n    //         //PatientHospital[_patient]=_hospital;\n\n    //         PatientHospital[_hospital][_patient] = Patient(name,_mobileNumber);\n    //         //events triggered,for dagger\n    //         emit InformPatient(_hospital,HospitalInfo[_hospital].location, HospitalInfo[_hospital].mobileNumber);\n    //         emit InformHospital(_hospital, location, _mobileNumber);\n\n    //       return true;\n\n\n    //     }\n    //     else\n    //     {\n    //     return false;\n    //     }\n\n\n    // }\n\n\n    function discharge(address _patient) public returns(bool){\n        address _hospital = msg.sender;\n        /* require(msg.sender == creator); */\n        require(HospitalInfo[_hospital].hospitalCapacity != 0);\n        HospitalInfo[_hospital].hospitalAvailability += 1;\n        delete PatientHospital[_hospital][_patient];\n        return true;\n\n    }\n\n    function showPatientAllotment(address _hospital,address _patient) public returns(Patient memory){\n\n        return PatientHospital[_hospital][_patient];\n\n\n    }\n\n\n\n\n\n\n\n\n\n\n\n\n\n\n\n\n\n}\n",
  "sourcePath": "/home/hrishabh/dEmergency/contracts/dEmergency.sol",
  "compiler": {
    "name": "solc",
    "version": "0.5.0+commit.1d4f565a.Emscripten.clang"
  },
  "schemaVersion": "3.0.0",
  "updatedAt": "2019-02-03T03:57:32.388Z",
  "devdoc": {
    "methods": {}
  },
  "userdoc": {
    "methods": {}
  }
}