{
  "contractName": "WRC",
  "abi": [
    {
      "constant": true,
      "inputs": [],
      "name": "minPercentageLocal",
      "outputs": [
        {
          "name": "",
          "type": "uint256"
        }
      ],
      "payable": false,
      "stateMutability": "view",
      "type": "function",
      "signature": "0x24bac64a"
    },
    {
      "constant": true,
      "inputs": [
        {
          "name": "",
          "type": "address"
        }
      ],
      "name": "IOTInfo",
      "outputs": [
        {
          "name": "orgID",
          "type": "address"
        },
        {
          "name": "meterType",
          "type": "string"
        },
        {
          "name": "reportedAt",
          "type": "string"
        }
      ],
      "payable": false,
      "stateMutability": "view",
      "type": "function",
      "signature": "0x602aa95d"
    },
    {
      "constant": true,
      "inputs": [],
      "name": "minSpecsIndus",
      "outputs": [
        {
          "name": "pH",
          "type": "uint256"
        },
        {
          "name": "solids",
          "type": "uint256"
        },
        {
          "name": "hardness",
          "type": "uint256"
        },
        {
          "name": "oil",
          "type": "uint256"
        },
        {
          "name": "BOD",
          "type": "uint256"
        }
      ],
      "payable": false,
      "stateMutability": "view",
      "type": "function",
      "signature": "0x7d258e8e"
    },
    {
      "constant": true,
      "inputs": [],
      "name": "minPercentageIndus",
      "outputs": [
        {
          "name": "",
          "type": "uint256"
        }
      ],
      "payable": false,
      "stateMutability": "view",
      "type": "function",
      "signature": "0x98c6305a"
    },
    {
      "constant": true,
      "inputs": [],
      "name": "minSpecsLocal",
      "outputs": [
        {
          "name": "pH",
          "type": "uint256"
        },
        {
          "name": "solids",
          "type": "uint256"
        },
        {
          "name": "hardness",
          "type": "uint256"
        },
        {
          "name": "oil",
          "type": "uint256"
        },
        {
          "name": "BOD",
          "type": "uint256"
        }
      ],
      "payable": false,
      "stateMutability": "view",
      "type": "function",
      "signature": "0xaae1b1b0"
    },
    {
      "constant": true,
      "inputs": [],
      "name": "regulator",
      "outputs": [
        {
          "name": "",
          "type": "address"
        }
      ],
      "payable": false,
      "stateMutability": "view",
      "type": "function",
      "signature": "0xdd8fee14"
    },
    {
      "constant": true,
      "inputs": [
        {
          "name": "",
          "type": "address"
        },
        {
          "name": "",
          "type": "uint256"
        }
      ],
      "name": "IOTReadings",
      "outputs": [
        {
          "name": "startTime",
          "type": "string"
        },
        {
          "name": "stopTime",
          "type": "string"
        },
        {
          "name": "quantity",
          "type": "uint256"
        },
        {
          "components": [
            {
              "name": "pH",
              "type": "uint256"
            },
            {
              "name": "solids",
              "type": "uint256"
            },
            {
              "name": "hardness",
              "type": "uint256"
            },
            {
              "name": "oil",
              "type": "uint256"
            },
            {
              "name": "BOD",
              "type": "uint256"
            }
          ],
          "name": "quality",
          "type": "tuple"
        }
      ],
      "payable": false,
      "stateMutability": "view",
      "type": "function",
      "signature": "0xeaf52964"
    },
    {
      "inputs": [],
      "payable": false,
      "stateMutability": "nonpayable",
      "type": "constructor",
      "signature": "constructor"
    },
    {
      "constant": false,
      "inputs": [
        {
          "name": "_meterID",
          "type": "address"
        },
        {
          "name": "_orgID",
          "type": "address"
        },
        {
          "name": "_meterType",
          "type": "string"
        },
        {
          "name": "_reportedAt",
          "type": "string"
        }
      ],
      "name": "addIOTDevice",
      "outputs": [],
      "payable": false,
      "stateMutability": "nonpayable",
      "type": "function",
      "signature": "0x8bd7df31"
    },
    {
      "constant": false,
      "inputs": [
        {
          "name": "_meterID",
          "type": "address"
        },
        {
          "name": "startTime",
          "type": "string"
        },
        {
          "name": "stopTime",
          "type": "string"
        },
        {
          "name": "quantity",
          "type": "uint256"
        },
        {
          "name": "_pH",
          "type": "uint256"
        },
        {
          "name": "_solids",
          "type": "uint256"
        },
        {
          "name": "_hardness",
          "type": "uint256"
        },
        {
          "name": "_oil",
          "type": "uint256"
        },
        {
          "name": "_BOD",
          "type": "uint256"
        }
      ],
      "name": "addReadings",
      "outputs": [],
      "payable": false,
      "stateMutability": "nonpayable",
      "type": "function",
      "signature": "0xc80b5896"
    },
    {
      "constant": false,
      "inputs": [
        {
          "name": "_pH",
          "type": "uint256"
        },
        {
          "name": "_solids",
          "type": "uint256"
        },
        {
          "name": "_hardness",
          "type": "uint256"
        },
        {
          "name": "_oil",
          "type": "uint256"
        },
        {
          "name": "_BOD",
          "type": "uint256"
        },
        {
          "name": "_minPercentageIndus",
          "type": "uint256"
        }
      ],
      "name": "defineWaterSpecsIndus",
      "outputs": [],
      "payable": false,
      "stateMutability": "nonpayable",
      "type": "function",
      "signature": "0xe52c2b38"
    },
    {
      "constant": false,
      "inputs": [
        {
          "name": "_pH",
          "type": "uint256"
        },
        {
          "name": "_solids",
          "type": "uint256"
        },
        {
          "name": "_hardness",
          "type": "uint256"
        },
        {
          "name": "_oil",
          "type": "uint256"
        },
        {
          "name": "_BOD",
          "type": "uint256"
        },
        {
          "name": "_minPercentageLocal",
          "type": "uint256"
        }
      ],
      "name": "defineWaterSpecsLocal",
      "outputs": [],
      "payable": false,
      "stateMutability": "nonpayable",
      "type": "function",
      "signature": "0x28d2bf92"
    }
  ],
  "bytecode": "0x608060405234801561001057600080fd5b50336000806101000a81548173ffffffffffffffffffffffffffffffffffffffff021916908373ffffffffffffffffffffffffffffffffffffffff16021790555061114d806100606000396000f3fe6080604052600436106100af576000357c0100000000000000000000000000000000000000000000000000000000900463ffffffff16806324bac64a146100b457806328d2bf92146100df578063602aa95d146101085780637d258e8e146101475780638bd7df311461017657806398c6305a1461019f578063aae1b1b0146101ca578063c80b5896146101f9578063dd8fee1414610222578063e52c2b381461024d578063eaf5296414610276575b600080fd5b3480156100c057600080fd5b506100c96102b6565b6040516100d69190610f96565b60405180910390f35b3480156100eb57600080fd5b5061010660048036036101019190810190610d9d565b6102bc565b005b34801561011457600080fd5b5061012f600480360361012a9190810190610baf565b610385565b60405161013e93929190610efd565b60405180910390f35b34801561015357600080fd5b5061015c6104ff565b60405161016d959493929190610fb1565b60405180910390f35b34801561018257600080fd5b5061019d60048036036101989190810190610bd8565b610523565b005b3480156101ab57600080fd5b506101b4610679565b6040516101c19190610f96565b60405180910390f35b3480156101d657600080fd5b506101df61067f565b6040516101f0959493929190610fb1565b60405180910390f35b34801561020557600080fd5b50610220600480360361021b9190810190610c6b565b6106a3565b005b34801561022e57600080fd5b506102376107e5565b6040516102449190610ee2565b60405180910390f35b34801561025957600080fd5b50610274600480360361026f9190810190610d9d565b61080a565b005b34801561028257600080fd5b5061029d60048036036102989190810190610d61565b6108d3565b6040516102ad9493929190610f42565b60405180910390f35b60025481565b6000809054906101000a900473ffffffffffffffffffffffffffffffffffffffff1673ffffffffffffffffffffffffffffffffffffffff163373ffffffffffffffffffffffffffffffffffffffff1614151561031757600080fd5b60a060405190810160405280878152602001868152602001858152602001848152602001838152506008600082015181600001556020820151816001015560408201518160020155606082015181600301556080820151816004015590505080600281905550505050505050565b600d6020528060005260406000206000915090508060000160009054906101000a900473ffffffffffffffffffffffffffffffffffffffff1690806001018054600181600116156101000203166002900480601f0160208091040260200160405190810160405280929190818152602001828054600181600116156101000203166002900480156104575780601f1061042c57610100808354040283529160200191610457565b820191906000526020600020905b81548152906001019060200180831161043a57829003601f168201915b505050505090806002018054600181600116156101000203166002900480601f0160208091040260200160405190810160405280929190818152602001828054600181600116156101000203166002900480156104f55780601f106104ca576101008083540402835291602001916104f5565b820191906000526020600020905b8154815290600101906020018083116104d857829003601f168201915b5050505050905083565b60038060000154908060010154908060020154908060030154908060040154905085565b6000809054906101000a900473ffffffffffffffffffffffffffffffffffffffff1673ffffffffffffffffffffffffffffffffffffffff163373ffffffffffffffffffffffffffffffffffffffff1614151561057e57600080fd5b6060604051908101604052808473ffffffffffffffffffffffffffffffffffffffff16815260200183815260200182815250600d60008673ffffffffffffffffffffffffffffffffffffffff1673ffffffffffffffffffffffffffffffffffffffff16815260200190815260200160002060008201518160000160006101000a81548173ffffffffffffffffffffffffffffffffffffffff021916908373ffffffffffffffffffffffffffffffffffffffff1602179055506020820151816001019080519060200190610652929190610a8c565b50604082015181600201908051906020019061066f929190610a8c565b5090505050505050565b60015481565b60088060000154908060010154908060020154908060030154908060040154905085565b600e60008a73ffffffffffffffffffffffffffffffffffffffff1673ffffffffffffffffffffffffffffffffffffffff1681526020019081526020016000206080604051908101604052808a815260200189815260200188815260200160a06040519081016040528089815260200188815260200187815260200186815260200185815250815250908060018154018082558091505090600182039060005260206000209060080201600090919290919091506000820151816000019080519060200190610772929190610a8c565b50602082015181600101908051906020019061078f929190610a8c565b506040820151816002015560608201518160030160008201518160000155602082015181600101556040820151816002015560608201518160030155608082015181600401555050505050505050505050505050565b6000809054906101000a900473ffffffffffffffffffffffffffffffffffffffff1681565b6000809054906101000a900473ffffffffffffffffffffffffffffffffffffffff1673ffffffffffffffffffffffffffffffffffffffff163373ffffffffffffffffffffffffffffffffffffffff1614151561086557600080fd5b60a060405190810160405280878152602001868152602001858152602001848152602001838152506003600082015181600001556020820151816001015560408201518160020155606082015181600301556080820151816004015590505080600181905550505050505050565b600e602052816000526040600020818154811015156108ee57fe5b906000526020600020906008020160009150915050806000018054600181600116156101000203166002900480601f01602080910402602001604051908101604052809291908181526020018280546001816001161561010002031660029004801561099b5780601f106109705761010080835404028352916020019161099b565b820191906000526020600020905b81548152906001019060200180831161097e57829003601f168201915b505050505090806001018054600181600116156101000203166002900480601f016020809104026020016040519081016040528092919081815260200182805460018160011615610100020316600290048015610a395780601f10610a0e57610100808354040283529160200191610a39565b820191906000526020600020905b815481529060010190602001808311610a1c57829003601f168201915b5050505050908060020154908060030160a0604051908101604052908160008201548152602001600182015481526020016002820154815260200160038201548152602001600482015481525050905084565b828054600181600116156101000203166002900490600052602060002090601f016020900481019282601f10610acd57805160ff1916838001178555610afb565b82800160010185558215610afb579182015b82811115610afa578251825591602001919060010190610adf565b5b509050610b089190610b0c565b5090565b610b2e91905b80821115610b2a576000816000905550600101610b12565b5090565b90565b6000610b3d82356110a4565b905092915050565b600082601f8301121515610b5857600080fd5b8135610b6b610b6682611031565b611004565b91508082526020830160208301858383011115610b8757600080fd5b610b928382846110c0565b50505092915050565b6000610ba782356110b6565b905092915050565b600060208284031215610bc157600080fd5b6000610bcf84828501610b31565b91505092915050565b60008060008060808587031215610bee57600080fd5b6000610bfc87828801610b31565b9450506020610c0d87828801610b31565b935050604085013567ffffffffffffffff811115610c2a57600080fd5b610c3687828801610b45565b925050606085013567ffffffffffffffff811115610c5357600080fd5b610c5f87828801610b45565b91505092959194509250565b60008060008060008060008060006101208a8c031215610c8a57600080fd5b6000610c988c828d01610b31565b99505060208a013567ffffffffffffffff811115610cb557600080fd5b610cc18c828d01610b45565b98505060408a013567ffffffffffffffff811115610cde57600080fd5b610cea8c828d01610b45565b9750506060610cfb8c828d01610b9b565b9650506080610d0c8c828d01610b9b565b95505060a0610d1d8c828d01610b9b565b94505060c0610d2e8c828d01610b9b565b93505060e0610d3f8c828d01610b9b565b925050610100610d518c828d01610b9b565b9150509295985092959850929598565b60008060408385031215610d7457600080fd5b6000610d8285828601610b31565b9250506020610d9385828601610b9b565b9150509250929050565b60008060008060008060c08789031215610db657600080fd5b6000610dc489828a01610b9b565b9650506020610dd589828a01610b9b565b9550506040610de689828a01610b9b565b9450506060610df789828a01610b9b565b9350506080610e0889828a01610b9b565b92505060a0610e1989828a01610b9b565b9150509295509295509295565b610e2f81611068565b82525050565b6000610e408261105d565b808452610e548160208601602086016110cf565b610e5d81611102565b602085010191505092915050565b60a082016000820151610e816000850182610ed3565b506020820151610e946020850182610ed3565b506040820151610ea76040850182610ed3565b506060820151610eba6060850182610ed3565b506080820151610ecd6080850182610ed3565b50505050565b610edc8161109a565b82525050565b6000602082019050610ef76000830184610e26565b92915050565b6000606082019050610f126000830186610e26565b8181036020830152610f248185610e35565b90508181036040830152610f388184610e35565b9050949350505050565b6000610100820190508181036000830152610f5d8187610e35565b90508181036020830152610f718186610e35565b9050610f806040830185610ed3565b610f8d6060830184610e6b565b95945050505050565b6000602082019050610fab6000830184610ed3565b92915050565b600060a082019050610fc66000830188610ed3565b610fd36020830187610ed3565b610fe06040830186610ed3565b610fed6060830185610ed3565b610ffa6080830184610ed3565b9695505050505050565b6000604051905081810181811067ffffffffffffffff8211171561102757600080fd5b8060405250919050565b600067ffffffffffffffff82111561104857600080fd5b601f19601f8301169050602081019050919050565b600081519050919050565b60006110738261107a565b9050919050565b600073ffffffffffffffffffffffffffffffffffffffff82169050919050565b6000819050919050565b60006110af8261107a565b9050919050565b6000819050919050565b82818337600083830152505050565b60005b838110156110ed5780820151818401526020810190506110d2565b838111156110fc576000848401525b50505050565b6000601f19601f830116905091905056fea265627a7a7230582096eb5f020a5b01bf258568a3157262ea727896416e2b39bb823e17f6ed77674a6c6578706572696d656e74616cf50037",
  "source": "pragma solidity >= 0.4.23;\npragma experimental ABIEncoderV2;\ncontract WRC {\n\n    //authority\n    address public regulator;\n    //percentage of water reuse\n    uint public minPercentageIndus;\n    uint public minPercentageLocal;\n\n    struct IOTDevice {\n        address orgID;\n        string meterType;\n        string reportedAt;\n\n    }\n\n    struct waterQuality {\n        uint pH;\n        uint solids;\n        uint hardness;\n        uint oil;\n        uint BOD;\n\n    }\n    waterQuality public minSpecsIndus;\n    waterQuality public minSpecsLocal;\n\n    struct Readings {\n        string startTime;\n        string stopTime;\n        uint quantity;\n        waterQuality quality;\n    }\n\n\n\n    constructor() public {\n        regulator = msg.sender;\n    }\n\n    //set a water reuse percentage\n    // function changeWRCPercentage(uint _value) public {\n    //     require(msg.sender == regulator);\n    //     minPercentage = _value;\n    // }\n\n\n    //this will track a particular IOT device info\n    mapping(address => IOTDevice) public IOTInfo;\n\n    //this will give readings of a particular device\n    mapping(address => Readings[]) public IOTReadings;\n\n\n    //adding a new IOT meter by regualtor\n    function addIOTDevice(address _meterID,address _orgID,string memory _meterType,string memory _reportedAt) public {\n        require(msg.sender == regulator);\n        IOTInfo[_meterID]=IOTDevice(_orgID,_meterType,_reportedAt);\n    }\n\n    //adding Readings of a device\n    function addReadings(address _meterID,string memory startTime,string memory stopTime,uint quantity,uint _pH,uint _solids,uint _hardness,uint _oil,uint _BOD) public {\n\n\n        IOTReadings[_meterID].push(Readings(startTime,stopTime,quantity,waterQuality(_pH,_solids,_hardness,_oil,_BOD)));\n\n    }\n\n    function defineWaterSpecsIndus(uint _pH,uint _solids,uint _hardness,uint _oil,uint _BOD,uint _minPercentageIndus) public {\n        require(msg.sender == regulator);\n        minSpecsIndus = waterQuality(_pH,_solids,_hardness,_oil,_BOD);\n        minPercentageIndus = _minPercentageIndus;\n\n    }\n\n    function defineWaterSpecsLocal(uint _pH,uint _solids,uint _hardness,uint _oil,uint _BOD,uint _minPercentageLocal) public {\n        require(msg.sender == regulator);\n        minSpecsLocal = waterQuality(_pH,_solids,_hardness,_oil,_BOD);\n        minPercentageLocal = _minPercentageLocal;\n\n    }\n\n}\n",
  "sourcePath": "/home/hrishabh/js/WRC-Hackathon-App/contracts/WRC.sol",
  "compiler": {
    "name": "solc",
    "version": "0.5.0+commit.1d4f565a.Emscripten.clang"
  },
  "schemaVersion": "3.0.0",
  "updatedAt": "2019-02-20T13:11:07.157Z",
  "devdoc": {
    "methods": {}
  },
  "userdoc": {
    "methods": {}
  }
}