{
  "contractName": "WRC",
  "abi": [
    {
      "constant": true,
      "inputs": [],
      "name": "minPercentageLocal",
      "outputs": [
        {
          "name": "",
          "type": "uint256"
        }
      ],
      "payable": false,
      "stateMutability": "view",
      "type": "function",
      "signature": "0x24bac64a"
    },
    {
      "constant": true,
      "inputs": [
        {
          "name": "",
          "type": "address"
        }
      ],
      "name": "IOTInfo",
      "outputs": [
        {
          "name": "orgID",
          "type": "address"
        },
        {
          "name": "meterType",
          "type": "string"
        },
        {
          "name": "reportedAt",
          "type": "string"
        }
      ],
      "payable": false,
      "stateMutability": "view",
      "type": "function",
      "signature": "0x602aa95d"
    },
    {
      "constant": true,
      "inputs": [
        {
          "name": "",
          "type": "uint256"
        }
      ],
      "name": "authorisedIOTs",
      "outputs": [
        {
          "name": "",
          "type": "address"
        }
      ],
      "payable": false,
      "stateMutability": "view",
      "type": "function",
      "signature": "0x788dd418"
    },
    {
      "constant": true,
      "inputs": [],
      "name": "minSpecsIndus",
      "outputs": [
        {
          "name": "pH",
          "type": "uint256"
        },
        {
          "name": "solids",
          "type": "uint256"
        },
        {
          "name": "hardness",
          "type": "uint256"
        },
        {
          "name": "oil",
          "type": "uint256"
        },
        {
          "name": "BOD",
          "type": "uint256"
        }
      ],
      "payable": false,
      "stateMutability": "view",
      "type": "function",
      "signature": "0x7d258e8e"
    },
    {
      "constant": true,
      "inputs": [],
      "name": "minPercentageIndus",
      "outputs": [
        {
          "name": "",
          "type": "uint256"
        }
      ],
      "payable": false,
      "stateMutability": "view",
      "type": "function",
      "signature": "0x98c6305a"
    },
    {
      "constant": true,
      "inputs": [],
      "name": "minSpecsLocal",
      "outputs": [
        {
          "name": "pH",
          "type": "uint256"
        },
        {
          "name": "solids",
          "type": "uint256"
        },
        {
          "name": "hardness",
          "type": "uint256"
        },
        {
          "name": "oil",
          "type": "uint256"
        },
        {
          "name": "BOD",
          "type": "uint256"
        }
      ],
      "payable": false,
      "stateMutability": "view",
      "type": "function",
      "signature": "0xaae1b1b0"
    },
    {
      "constant": true,
      "inputs": [],
      "name": "regulator",
      "outputs": [
        {
          "name": "",
          "type": "address"
        }
      ],
      "payable": false,
      "stateMutability": "view",
      "type": "function",
      "signature": "0xdd8fee14"
    },
    {
      "constant": true,
      "inputs": [
        {
          "name": "",
          "type": "address"
        },
        {
          "name": "",
          "type": "uint256"
        }
      ],
      "name": "IOTReadings",
      "outputs": [
        {
          "name": "startTime",
          "type": "string"
        },
        {
          "name": "stopTime",
          "type": "string"
        },
        {
          "name": "quantity",
          "type": "uint256"
        },
        {
          "components": [
            {
              "name": "pH",
              "type": "uint256"
            },
            {
              "name": "solids",
              "type": "uint256"
            },
            {
              "name": "hardness",
              "type": "uint256"
            },
            {
              "name": "oil",
              "type": "uint256"
            },
            {
              "name": "BOD",
              "type": "uint256"
            }
          ],
          "name": "quality",
          "type": "tuple"
        }
      ],
      "payable": false,
      "stateMutability": "view",
      "type": "function",
      "signature": "0xeaf52964"
    },
    {
      "inputs": [],
      "payable": false,
      "stateMutability": "nonpayable",
      "type": "constructor",
      "signature": "constructor"
    },
    {
      "constant": false,
      "inputs": [
        {
          "name": "_meterID",
          "type": "address"
        },
        {
          "name": "_orgID",
          "type": "address"
        },
        {
          "name": "_meterType",
          "type": "string"
        },
        {
          "name": "_reportedAt",
          "type": "string"
        }
      ],
      "name": "addIOTDevice",
      "outputs": [],
      "payable": false,
      "stateMutability": "nonpayable",
      "type": "function",
      "signature": "0x8bd7df31"
    },
    {
      "constant": false,
      "inputs": [
        {
          "name": "_meterID",
          "type": "address"
        },
        {
          "name": "startTime",
          "type": "string"
        },
        {
          "name": "stopTime",
          "type": "string"
        },
        {
          "name": "quantity",
          "type": "uint256"
        },
        {
          "name": "_pH",
          "type": "uint256"
        },
        {
          "name": "_solids",
          "type": "uint256"
        },
        {
          "name": "_hardness",
          "type": "uint256"
        },
        {
          "name": "_oil",
          "type": "uint256"
        },
        {
          "name": "_BOD",
          "type": "uint256"
        }
      ],
      "name": "addReadings",
      "outputs": [],
      "payable": false,
      "stateMutability": "nonpayable",
      "type": "function",
      "signature": "0xc80b5896"
    },
    {
      "constant": false,
      "inputs": [
        {
          "name": "_pH",
          "type": "uint256"
        },
        {
          "name": "_solids",
          "type": "uint256"
        },
        {
          "name": "_hardness",
          "type": "uint256"
        },
        {
          "name": "_oil",
          "type": "uint256"
        },
        {
          "name": "_BOD",
          "type": "uint256"
        },
        {
          "name": "_minPercentageIndus",
          "type": "uint256"
        }
      ],
      "name": "defineWaterSpecsIndus",
      "outputs": [],
      "payable": false,
      "stateMutability": "nonpayable",
      "type": "function",
      "signature": "0xe52c2b38"
    },
    {
      "constant": false,
      "inputs": [
        {
          "name": "_pH",
          "type": "uint256"
        },
        {
          "name": "_solids",
          "type": "uint256"
        },
        {
          "name": "_hardness",
          "type": "uint256"
        },
        {
          "name": "_oil",
          "type": "uint256"
        },
        {
          "name": "_BOD",
          "type": "uint256"
        },
        {
          "name": "_minPercentageLocal",
          "type": "uint256"
        }
      ],
      "name": "defineWaterSpecsLocal",
      "outputs": [],
      "payable": false,
      "stateMutability": "nonpayable",
      "type": "function",
      "signature": "0x28d2bf92"
    },
    {
      "constant": true,
      "inputs": [],
      "name": "getauthorisedIOTs",
      "outputs": [
        {
          "name": "",
          "type": "address[]"
        }
      ],
      "payable": false,
      "stateMutability": "view",
      "type": "function",
      "signature": "0x6d071334"
    }
  ],
  "bytecode": "0x608060405234801561001057600080fd5b50336000806101000a81548173ffffffffffffffffffffffffffffffffffffffff021916908373ffffffffffffffffffffffffffffffffffffffff1602179055506113c8806100606000396000f3fe6080604052600436106100c5576000357c0100000000000000000000000000000000000000000000000000000000900463ffffffff16806324bac64a146100ca57806328d2bf92146100f5578063602aa95d1461011e5780636d0713341461015d578063788dd418146101885780637d258e8e146101c55780638bd7df31146101f457806398c6305a1461021d578063aae1b1b014610248578063c80b589614610277578063dd8fee14146102a0578063e52c2b38146102cb578063eaf52964146102f4575b600080fd5b3480156100d657600080fd5b506100df610334565b6040516100ec91906111ec565b60405180910390f35b34801561010157600080fd5b5061011c60048036036101179190810190610f76565b61033a565b005b34801561012a57600080fd5b5061014560048036036101409190810190610d5f565b610403565b60405161015493929190611131565b60405180910390f35b34801561016957600080fd5b5061017261057d565b60405161017f9190611176565b60405180910390f35b34801561019457600080fd5b506101af60048036036101aa9190810190610f4d565b61060b565b6040516101bc9190611116565b60405180910390f35b3480156101d157600080fd5b506101da610649565b6040516101eb959493929190611207565b60405180910390f35b34801561020057600080fd5b5061021b60048036036102169190810190610d88565b61066d565b005b34801561022957600080fd5b50610232610829565b60405161023f91906111ec565b60405180910390f35b34801561025457600080fd5b5061025d61082f565b60405161026e959493929190611207565b60405180910390f35b34801561028357600080fd5b5061029e60048036036102999190810190610e1b565b610853565b005b3480156102ac57600080fd5b506102b5610995565b6040516102c29190611116565b60405180910390f35b3480156102d757600080fd5b506102f260048036036102ed9190810190610f76565b6109ba565b005b34801561030057600080fd5b5061031b60048036036103169190810190610f11565b610a83565b60405161032b9493929190611198565b60405180910390f35b60025481565b6000809054906101000a900473ffffffffffffffffffffffffffffffffffffffff1673ffffffffffffffffffffffffffffffffffffffff163373ffffffffffffffffffffffffffffffffffffffff1614151561039557600080fd5b60a060405190810160405280878152602001868152602001858152602001848152602001838152506009600082015181600001556020820151816001015560408201518160020155606082015181600301556080820151816004015590505080600281905550505050505050565b600e6020528060005260406000206000915090508060000160009054906101000a900473ffffffffffffffffffffffffffffffffffffffff1690806001018054600181600116156101000203166002900480601f0160208091040260200160405190810160405280929190818152602001828054600181600116156101000203166002900480156104d55780601f106104aa576101008083540402835291602001916104d5565b820191906000526020600020905b8154815290600101906020018083116104b857829003601f168201915b505050505090806002018054600181600116156101000203166002900480601f0160208091040260200160405190810160405280929190818152602001828054600181600116156101000203166002900480156105735780601f1061054857610100808354040283529160200191610573565b820191906000526020600020905b81548152906001019060200180831161055657829003601f168201915b5050505050905083565b6060600380548060200260200160405190810160405280929190818152602001828054801561060157602002820191906000526020600020905b8160009054906101000a900473ffffffffffffffffffffffffffffffffffffffff1673ffffffffffffffffffffffffffffffffffffffff16815260200190600101908083116105b7575b5050505050905090565b60038181548110151561061a57fe5b906000526020600020016000915054906101000a900473ffffffffffffffffffffffffffffffffffffffff1681565b60048060000154908060010154908060020154908060030154908060040154905085565b6000809054906101000a900473ffffffffffffffffffffffffffffffffffffffff1673ffffffffffffffffffffffffffffffffffffffff163373ffffffffffffffffffffffffffffffffffffffff161415156106c857600080fd5b6060604051908101604052808473ffffffffffffffffffffffffffffffffffffffff16815260200183815260200182815250600e60008673ffffffffffffffffffffffffffffffffffffffff1673ffffffffffffffffffffffffffffffffffffffff16815260200190815260200160002060008201518160000160006101000a81548173ffffffffffffffffffffffffffffffffffffffff021916908373ffffffffffffffffffffffffffffffffffffffff160217905550602082015181600101908051906020019061079c929190610c3c565b5060408201518160020190805190602001906107b9929190610c3c565b5090505060038490806001815401808255809150509060018203906000526020600020016000909192909190916101000a81548173ffffffffffffffffffffffffffffffffffffffff021916908373ffffffffffffffffffffffffffffffffffffffff1602179055505050505050565b60015481565b60098060000154908060010154908060020154908060030154908060040154905085565b600f60008a73ffffffffffffffffffffffffffffffffffffffff1673ffffffffffffffffffffffffffffffffffffffff1681526020019081526020016000206080604051908101604052808a815260200189815260200188815260200160a06040519081016040528089815260200188815260200187815260200186815260200185815250815250908060018154018082558091505090600182039060005260206000209060080201600090919290919091506000820151816000019080519060200190610922929190610c3c565b50602082015181600101908051906020019061093f929190610c3c565b506040820151816002015560608201518160030160008201518160000155602082015181600101556040820151816002015560608201518160030155608082015181600401555050505050505050505050505050565b6000809054906101000a900473ffffffffffffffffffffffffffffffffffffffff1681565b6000809054906101000a900473ffffffffffffffffffffffffffffffffffffffff1673ffffffffffffffffffffffffffffffffffffffff163373ffffffffffffffffffffffffffffffffffffffff16141515610a1557600080fd5b60a060405190810160405280878152602001868152602001858152602001848152602001838152506004600082015181600001556020820151816001015560408201518160020155606082015181600301556080820151816004015590505080600181905550505050505050565b600f60205281600052604060002081815481101515610a9e57fe5b906000526020600020906008020160009150915050806000018054600181600116156101000203166002900480601f016020809104026020016040519081016040528092919081815260200182805460018160011615610100020316600290048015610b4b5780601f10610b2057610100808354040283529160200191610b4b565b820191906000526020600020905b815481529060010190602001808311610b2e57829003601f168201915b505050505090806001018054600181600116156101000203166002900480601f016020809104026020016040519081016040528092919081815260200182805460018160011615610100020316600290048015610be95780601f10610bbe57610100808354040283529160200191610be9565b820191906000526020600020905b815481529060010190602001808311610bcc57829003601f168201915b5050505050908060020154908060030160a0604051908101604052908160008201548152602001600182015481526020016002820154815260200160038201548152602001600482015481525050905084565b828054600181600116156101000203166002900490600052602060002090601f016020900481019282601f10610c7d57805160ff1916838001178555610cab565b82800160010185558215610cab579182015b82811115610caa578251825591602001919060010190610c8f565b5b509050610cb89190610cbc565b5090565b610cde91905b80821115610cda576000816000905550600101610cc2565b5090565b90565b6000610ced823561131f565b905092915050565b600082601f8301121515610d0857600080fd5b8135610d1b610d1682611287565b61125a565b91508082526020830160208301858383011115610d3757600080fd5b610d4283828461133b565b50505092915050565b6000610d578235611331565b905092915050565b600060208284031215610d7157600080fd5b6000610d7f84828501610ce1565b91505092915050565b60008060008060808587031215610d9e57600080fd5b6000610dac87828801610ce1565b9450506020610dbd87828801610ce1565b935050604085013567ffffffffffffffff811115610dda57600080fd5b610de687828801610cf5565b925050606085013567ffffffffffffffff811115610e0357600080fd5b610e0f87828801610cf5565b91505092959194509250565b60008060008060008060008060006101208a8c031215610e3a57600080fd5b6000610e488c828d01610ce1565b99505060208a013567ffffffffffffffff811115610e6557600080fd5b610e718c828d01610cf5565b98505060408a013567ffffffffffffffff811115610e8e57600080fd5b610e9a8c828d01610cf5565b9750506060610eab8c828d01610d4b565b9650506080610ebc8c828d01610d4b565b95505060a0610ecd8c828d01610d4b565b94505060c0610ede8c828d01610d4b565b93505060e0610eef8c828d01610d4b565b925050610100610f018c828d01610d4b565b9150509295985092959850929598565b60008060408385031215610f2457600080fd5b6000610f3285828601610ce1565b9250506020610f4385828601610d4b565b9150509250929050565b600060208284031215610f5f57600080fd5b6000610f6d84828501610d4b565b91505092915050565b60008060008060008060c08789031215610f8f57600080fd5b6000610f9d89828a01610d4b565b9650506020610fae89828a01610d4b565b9550506040610fbf89828a01610d4b565b9450506060610fd089828a01610d4b565b9350506080610fe189828a01610d4b565b92505060a0610ff289828a01610d4b565b9150509295509295509295565b611008816112e3565b82525050565b6000611019826112c0565b80845260208401935061102b836112b3565b60005b8281101561105d57611041868351610fff565b61104a826112d6565b915060208601955060018101905061102e565b50849250505092915050565b6000611074826112cb565b80845261108881602086016020860161134a565b6110918161137d565b602085010191505092915050565b60a0820160008201516110b56000850182611107565b5060208201516110c86020850182611107565b5060408201516110db6040850182611107565b5060608201516110ee6060850182611107565b5060808201516111016080850182611107565b50505050565b61111081611315565b82525050565b600060208201905061112b6000830184610fff565b92915050565b60006060820190506111466000830186610fff565b81810360208301526111588185611069565b9050818103604083015261116c8184611069565b9050949350505050565b60006020820190508181036000830152611190818461100e565b905092915050565b60006101008201905081810360008301526111b38187611069565b905081810360208301526111c78186611069565b90506111d66040830185611107565b6111e3606083018461109f565b95945050505050565b60006020820190506112016000830184611107565b92915050565b600060a08201905061121c6000830188611107565b6112296020830187611107565b6112366040830186611107565b6112436060830185611107565b6112506080830184611107565b9695505050505050565b6000604051905081810181811067ffffffffffffffff8211171561127d57600080fd5b8060405250919050565b600067ffffffffffffffff82111561129e57600080fd5b601f19601f8301169050602081019050919050565b6000602082019050919050565b600081519050919050565b600081519050919050565b6000602082019050919050565b60006112ee826112f5565b9050919050565b600073ffffffffffffffffffffffffffffffffffffffff82169050919050565b6000819050919050565b600061132a826112f5565b9050919050565b6000819050919050565b82818337600083830152505050565b60005b8381101561136857808201518184015260208101905061134d565b83811115611377576000848401525b50505050565b6000601f19601f830116905091905056fea265627a7a723058208c7ef1afb2204a1776aded0587fd161d33a5105f29da07efcb2999288c54e5a36c6578706572696d656e74616cf50037",
  "source": "pragma solidity >= 0.4.23;\npragma experimental ABIEncoderV2;\ncontract WRC {\n\n    //authority\n    address public regulator;\n    //percentage of water reuse\n    uint public minPercentageIndus;\n    uint public minPercentageLocal;\n\n    struct IOTDevice {\n        address orgID;\n        string meterType;\n        string reportedAt;\n\n    }\n    address[] public authorisedIOTs;\n    struct waterQuality {\n        uint pH;\n        uint solids;\n        uint hardness;\n        uint oil;\n        uint BOD;\n\n    }\n    waterQuality public minSpecsIndus;\n    waterQuality public minSpecsLocal;\n\n    struct Readings {\n        string startTime;\n        string stopTime;\n        uint quantity;\n        waterQuality quality;\n    }\n\n\n\n    constructor() public {\n        regulator = msg.sender;\n    }\n\n    //set a water reuse percentage\n    // function changeWRCPercentage(uint _value) public {\n    //     require(msg.sender == regulator);\n    //     minPercentage = _value;\n    // }\n\n\n    //this will track a particular IOT device info\n    mapping(address => IOTDevice) public IOTInfo;\n\n    //this will give readings of a particular device\n    mapping(address => Readings[]) public IOTReadings;\n\n\n    //adding a new IOT meter by regualtor\n    function addIOTDevice(address _meterID,address _orgID,string memory _meterType,string memory _reportedAt) public {\n        require(msg.sender == regulator);\n        IOTInfo[_meterID]=IOTDevice(_orgID,_meterType,_reportedAt);\n        authorisedIOTs.push(_meterID);\n    }\n\n    //adding Readings of a device\n    function addReadings(address _meterID,string memory startTime,string memory stopTime,uint quantity,uint _pH,uint _solids,uint _hardness,uint _oil,uint _BOD) public {\n\n\n        IOTReadings[_meterID].push(Readings(startTime,stopTime,quantity,waterQuality(_pH,_solids,_hardness,_oil,_BOD)));\n\n    }\n\n    function defineWaterSpecsIndus(uint _pH,uint _solids,uint _hardness,uint _oil,uint _BOD,uint _minPercentageIndus) public {\n        require(msg.sender == regulator);\n        minSpecsIndus = waterQuality(_pH,_solids,_hardness,_oil,_BOD);\n        minPercentageIndus = _minPercentageIndus;\n\n    }\n\n    function defineWaterSpecsLocal(uint _pH,uint _solids,uint _hardness,uint _oil,uint _BOD,uint _minPercentageLocal) public {\n        require(msg.sender == regulator);\n        minSpecsLocal = waterQuality(_pH,_solids,_hardness,_oil,_BOD);\n        minPercentageLocal = _minPercentageLocal;\n\n    }\n\n    function getauthorisedIOTs() public view returns(address[] memory)\n    {\n        return authorisedIOTs;\n\n    }\n\n}\n",
  "sourcePath": "/home/hrishabh/js/WRC-Hackathon-App/contracts/WRC.sol",
  "compiler": {
    "name": "solc",
    "version": "0.5.0+commit.1d4f565a.Emscripten.clang"
  },
  "schemaVersion": "3.0.0",
  "updatedAt": "2019-02-25T08:41:00.284Z",
  "devdoc": {
    "methods": {}
  },
  "userdoc": {
    "methods": {}
  }
}