{
  "contractName": "WRC",
  "abi": [
    {
      "constant": true,
      "inputs": [],
      "name": "minPercentage",
      "outputs": [
        {
          "name": "",
          "type": "uint256"
        }
      ],
      "payable": false,
      "stateMutability": "view",
      "type": "function",
      "signature": "0x0266782e"
    },
    {
      "constant": true,
      "inputs": [
        {
          "name": "",
          "type": "address"
        }
      ],
      "name": "IOTInfo",
      "outputs": [
        {
          "name": "orgID",
          "type": "address"
        },
        {
          "name": "meterType",
          "type": "string"
        },
        {
          "name": "reportedAt",
          "type": "string"
        }
      ],
      "payable": false,
      "stateMutability": "view",
      "type": "function",
      "signature": "0x602aa95d"
    },
    {
      "constant": true,
      "inputs": [],
      "name": "regulator",
      "outputs": [
        {
          "name": "",
          "type": "address"
        }
      ],
      "payable": false,
      "stateMutability": "view",
      "type": "function",
      "signature": "0xdd8fee14"
    },
    {
      "constant": true,
      "inputs": [
        {
          "name": "",
          "type": "address"
        },
        {
          "name": "",
          "type": "uint256"
        }
      ],
      "name": "IOTReadings",
      "outputs": [
        {
          "name": "startTime",
          "type": "string"
        },
        {
          "name": "stopTime",
          "type": "string"
        },
        {
          "name": "quantity",
          "type": "uint256"
        },
        {
          "components": [
            {
              "name": "BOD",
              "type": "uint256"
            },
            {
              "name": "turbidity",
              "type": "uint256"
            }
          ],
          "name": "quality",
          "type": "tuple"
        }
      ],
      "payable": false,
      "stateMutability": "view",
      "type": "function",
      "signature": "0xeaf52964"
    },
    {
      "inputs": [],
      "payable": false,
      "stateMutability": "nonpayable",
      "type": "constructor",
      "signature": "constructor"
    },
    {
      "constant": false,
      "inputs": [
        {
          "name": "_value",
          "type": "uint256"
        }
      ],
      "name": "changeWRCPercentage",
      "outputs": [],
      "payable": false,
      "stateMutability": "nonpayable",
      "type": "function",
      "signature": "0x93fd4f7d"
    },
    {
      "constant": false,
      "inputs": [
        {
          "name": "_meterID",
          "type": "address"
        },
        {
          "name": "_orgID",
          "type": "address"
        },
        {
          "name": "_meterType",
          "type": "string"
        },
        {
          "name": "_reportedAt",
          "type": "string"
        }
      ],
      "name": "addIOTDevice",
      "outputs": [],
      "payable": false,
      "stateMutability": "nonpayable",
      "type": "function",
      "signature": "0x8bd7df31"
    },
    {
      "constant": false,
      "inputs": [
        {
          "name": "_meterID",
          "type": "address"
        },
        {
          "name": "startTime",
          "type": "string"
        },
        {
          "name": "stopTime",
          "type": "string"
        },
        {
          "name": "quantity",
          "type": "uint256"
        },
        {
          "name": "BOD",
          "type": "uint256"
        },
        {
          "name": "turbidity",
          "type": "uint256"
        }
      ],
      "name": "addReadings",
      "outputs": [],
      "payable": false,
      "stateMutability": "nonpayable",
      "type": "function",
      "signature": "0x80ed3605"
    }
  ],
  "bytecode": "0x608060405234801561001057600080fd5b50336000806101000a81548173ffffffffffffffffffffffffffffffffffffffff021916908373ffffffffffffffffffffffffffffffffffffffff160217905550610d77806100606000396000f3fe608060405260043610610083576000357c0100000000000000000000000000000000000000000000000000000000900463ffffffff1680630266782e14610088578063602aa95d146100b357806380ed3605146100f25780638bd7df311461011b57806393fd4f7d14610144578063dd8fee141461016d578063eaf5296414610198575b600080fd5b34801561009457600080fd5b5061009d6101d8565b6040516100aa9190610c13565b60405180910390f35b3480156100bf57600080fd5b506100da60048036036100d59190810190610903565b6101de565b6040516100e993929190610b7b565b60405180910390f35b3480156100fe57600080fd5b50610119600480360361011491908101906109bf565b610358565b005b34801561012757600080fd5b50610142600480360361013d919081019061092c565b610466565b005b34801561015057600080fd5b5061016b60048036036101669190810190610ab4565b6105bc565b005b34801561017957600080fd5b50610182610621565b60405161018f9190610b60565b60405180910390f35b3480156101a457600080fd5b506101bf60048036036101ba9190810190610a78565b610646565b6040516101cf9493929190610bc0565b60405180910390f35b60015481565b60026020528060005260406000206000915090508060000160009054906101000a900473ffffffffffffffffffffffffffffffffffffffff1690806001018054600181600116156101000203166002900480601f0160208091040260200160405190810160405280929190818152602001828054600181600116156101000203166002900480156102b05780601f10610285576101008083540402835291602001916102b0565b820191906000526020600020905b81548152906001019060200180831161029357829003601f168201915b505050505090806002018054600181600116156101000203166002900480601f01602080910402602001604051908101604052809291908181526020018280546001816001161561010002031660029004801561034e5780601f106103235761010080835404028352916020019161034e565b820191906000526020600020905b81548152906001019060200180831161033157829003601f168201915b5050505050905083565b600360008773ffffffffffffffffffffffffffffffffffffffff1673ffffffffffffffffffffffffffffffffffffffff1681526020019081526020016000206080604051908101604052808781526020018681526020018581526020016040805190810160405280868152602001858152508152509080600181540180825580915050906001820390600052602060002090600502016000909192909190915060008201518160000190805190602001906104149291906107e0565b5060208201518160010190805190602001906104319291906107e0565b506040820151816002015560608201518160030160008201518160000155602082015181600101555050505050505050505050565b6000809054906101000a900473ffffffffffffffffffffffffffffffffffffffff1673ffffffffffffffffffffffffffffffffffffffff163373ffffffffffffffffffffffffffffffffffffffff161415156104c157600080fd5b6060604051908101604052808473ffffffffffffffffffffffffffffffffffffffff16815260200183815260200182815250600260008673ffffffffffffffffffffffffffffffffffffffff1673ffffffffffffffffffffffffffffffffffffffff16815260200190815260200160002060008201518160000160006101000a81548173ffffffffffffffffffffffffffffffffffffffff021916908373ffffffffffffffffffffffffffffffffffffffff16021790555060208201518160010190805190602001906105959291906107e0565b5060408201518160020190805190602001906105b29291906107e0565b5090505050505050565b6000809054906101000a900473ffffffffffffffffffffffffffffffffffffffff1673ffffffffffffffffffffffffffffffffffffffff163373ffffffffffffffffffffffffffffffffffffffff1614151561061757600080fd5b8060018190555050565b6000809054906101000a900473ffffffffffffffffffffffffffffffffffffffff1681565b60036020528160005260406000208181548110151561066157fe5b906000526020600020906005020160009150915050806000018054600181600116156101000203166002900480601f01602080910402602001604051908101604052809291908181526020018280546001816001161561010002031660029004801561070e5780601f106106e35761010080835404028352916020019161070e565b820191906000526020600020905b8154815290600101906020018083116106f157829003601f168201915b505050505090806001018054600181600116156101000203166002900480601f0160208091040260200160405190810160405280929190818152602001828054600181600116156101000203166002900480156107ac5780601f10610781576101008083540402835291602001916107ac565b820191906000526020600020905b81548152906001019060200180831161078f57829003601f168201915b5050505050908060020154908060030160408051908101604052908160008201548152602001600182015481525050905084565b828054600181600116156101000203166002900490600052602060002090601f016020900481019282601f1061082157805160ff191683800117855561084f565b8280016001018555821561084f579182015b8281111561084e578251825591602001919060010190610833565b5b50905061085c9190610860565b5090565b61088291905b8082111561087e576000816000905550600101610866565b5090565b90565b60006108918235610cce565b905092915050565b600082601f83011215156108ac57600080fd5b81356108bf6108ba82610c5b565b610c2e565b915080825260208301602083018583830111156108db57600080fd5b6108e6838284610cea565b50505092915050565b60006108fb8235610ce0565b905092915050565b60006020828403121561091557600080fd5b600061092384828501610885565b91505092915050565b6000806000806080858703121561094257600080fd5b600061095087828801610885565b945050602061096187828801610885565b935050604085013567ffffffffffffffff81111561097e57600080fd5b61098a87828801610899565b925050606085013567ffffffffffffffff8111156109a757600080fd5b6109b387828801610899565b91505092959194509250565b60008060008060008060c087890312156109d857600080fd5b60006109e689828a01610885565b965050602087013567ffffffffffffffff811115610a0357600080fd5b610a0f89828a01610899565b955050604087013567ffffffffffffffff811115610a2c57600080fd5b610a3889828a01610899565b9450506060610a4989828a016108ef565b9350506080610a5a89828a016108ef565b92505060a0610a6b89828a016108ef565b9150509295509295509295565b60008060408385031215610a8b57600080fd5b6000610a9985828601610885565b9250506020610aaa858286016108ef565b9150509250929050565b600060208284031215610ac657600080fd5b6000610ad4848285016108ef565b91505092915050565b610ae681610c92565b82525050565b6000610af782610c87565b808452610b0b816020860160208601610cf9565b610b1481610d2c565b602085010191505092915050565b604082016000820151610b386000850182610b51565b506020820151610b4b6020850182610b51565b50505050565b610b5a81610cc4565b82525050565b6000602082019050610b756000830184610add565b92915050565b6000606082019050610b906000830186610add565b8181036020830152610ba28185610aec565b90508181036040830152610bb68184610aec565b9050949350505050565b600060a0820190508181036000830152610bda8187610aec565b90508181036020830152610bee8186610aec565b9050610bfd6040830185610b51565b610c0a6060830184610b22565b95945050505050565b6000602082019050610c286000830184610b51565b92915050565b6000604051905081810181811067ffffffffffffffff82111715610c5157600080fd5b8060405250919050565b600067ffffffffffffffff821115610c7257600080fd5b601f19601f8301169050602081019050919050565b600081519050919050565b6000610c9d82610ca4565b9050919050565b600073ffffffffffffffffffffffffffffffffffffffff82169050919050565b6000819050919050565b6000610cd982610ca4565b9050919050565b6000819050919050565b82818337600083830152505050565b60005b83811015610d17578082015181840152602081019050610cfc565b83811115610d26576000848401525b50505050565b6000601f19601f830116905091905056fea265627a7a72305820a7c6a52d3f1853fc6de4d4efcff55bcba470e51c9c945d0cd4c67980aaa5324b6c6578706572696d656e74616cf50037",
  "source": "pragma solidity >= 0.4.23;\npragma experimental ABIEncoderV2;\ncontract WRC {\n\n    //authority\n    address public regulator;\n    //percentage of water reuse\n    uint public minPercentage;\n\n    struct IOTDevice {\n        address orgID;\n        string meterType;\n        string reportedAt;\n\n    }\n\n    struct waterQuality {\n        uint BOD;\n        uint turbidity;\n    }\n\n\n    struct Readings {\n        string startTime;\n        string stopTime;\n        uint quantity;\n        waterQuality quality;\n    }\n\n    constructor() public {\n        regulator = msg.sender;\n    }\n\n    //set a water reuse percentage\n    function changeWRCPercentage(uint _value) public {\n        require(msg.sender == regulator);\n        minPercentage = _value;\n    }\n\n\n    //this will track a particular IOT device info\n    mapping(address => IOTDevice) public IOTInfo;\n\n    //this will give readings of a particular device\n    mapping(address => Readings[]) public IOTReadings;\n\n\n    //adding a new IOT meter by regualtor\n    function addIOTDevice(address _meterID,address _orgID,string memory _meterType,string memory _reportedAt) public {\n        require(msg.sender == regulator);\n        IOTInfo[_meterID]=IOTDevice(_orgID,_meterType,_reportedAt);\n    }\n\n    //adding Readings of a device\n    function addReadings(address _meterID,string memory startTime,string memory stopTime,uint quantity,uint BOD,uint turbidity) public {\n\n\n        IOTReadings[_meterID].push(Readings(startTime,stopTime,quantity,waterQuality(BOD,turbidity)));\n\n    }\n\n\n\n\n\n\n\n\n\n\n}\n",
  "sourcePath": "/home/hrishabh/Desktop/dEmergency/contracts/WRC.sol",
  "compiler": {
    "name": "solc",
    "version": "0.5.0+commit.1d4f565a.Emscripten.clang"
  },
  "schemaVersion": "3.0.0",
  "updatedAt": "2019-02-19T15:56:59.841Z",
  "devdoc": {
    "methods": {}
  },
  "userdoc": {
    "methods": {}
  }
}