{
  "contractName": "WRC",
  "abi": [
    {
      "constant": true,
      "inputs": [],
      "name": "minPercentageLocal",
      "outputs": [
        {
          "name": "",
          "type": "uint256"
        }
      ],
      "payable": false,
      "stateMutability": "view",
      "type": "function",
      "signature": "0x24bac64a"
    },
    {
      "constant": true,
      "inputs": [
        {
          "name": "",
          "type": "address"
        }
      ],
      "name": "IOTInfo",
      "outputs": [
        {
          "name": "orgID",
          "type": "address"
        },
        {
          "name": "meterType",
          "type": "string"
        },
        {
          "name": "reportedAt",
          "type": "string"
        }
      ],
      "payable": false,
      "stateMutability": "view",
      "type": "function",
      "signature": "0x602aa95d"
    },
    {
      "constant": true,
      "inputs": [
        {
          "name": "",
          "type": "uint256"
        }
      ],
      "name": "authorisedIOTs",
      "outputs": [
        {
          "name": "",
          "type": "address"
        }
      ],
      "payable": false,
      "stateMutability": "view",
      "type": "function",
      "signature": "0x788dd418"
    },
    {
      "constant": true,
      "inputs": [],
      "name": "minSpecsIndus",
      "outputs": [
        {
          "name": "pH",
          "type": "uint256"
        },
        {
          "name": "solids",
          "type": "uint256"
        },
        {
          "name": "hardness",
          "type": "uint256"
        },
        {
          "name": "oil",
          "type": "uint256"
        },
        {
          "name": "BOD",
          "type": "uint256"
        }
      ],
      "payable": false,
      "stateMutability": "view",
      "type": "function",
      "signature": "0x7d258e8e"
    },
    {
      "constant": true,
      "inputs": [],
      "name": "minPercentageIndus",
      "outputs": [
        {
          "name": "",
          "type": "uint256"
        }
      ],
      "payable": false,
      "stateMutability": "view",
      "type": "function",
      "signature": "0x98c6305a"
    },
    {
      "constant": true,
      "inputs": [],
      "name": "minSpecsLocal",
      "outputs": [
        {
          "name": "pH",
          "type": "uint256"
        },
        {
          "name": "solids",
          "type": "uint256"
        },
        {
          "name": "hardness",
          "type": "uint256"
        },
        {
          "name": "oil",
          "type": "uint256"
        },
        {
          "name": "BOD",
          "type": "uint256"
        }
      ],
      "payable": false,
      "stateMutability": "view",
      "type": "function",
      "signature": "0xaae1b1b0"
    },
    {
      "constant": true,
      "inputs": [],
      "name": "regulator",
      "outputs": [
        {
          "name": "",
          "type": "address"
        }
      ],
      "payable": false,
      "stateMutability": "view",
      "type": "function",
      "signature": "0xdd8fee14"
    },
    {
      "constant": true,
      "inputs": [
        {
          "name": "",
          "type": "address"
        },
        {
          "name": "",
          "type": "uint256"
        }
      ],
      "name": "IOTReadings",
      "outputs": [
        {
          "name": "startTime",
          "type": "string"
        },
        {
          "name": "stopTime",
          "type": "string"
        },
        {
          "name": "quantity",
          "type": "uint256"
        },
        {
          "components": [
            {
              "name": "pH",
              "type": "uint256"
            },
            {
              "name": "solids",
              "type": "uint256"
            },
            {
              "name": "hardness",
              "type": "uint256"
            },
            {
              "name": "oil",
              "type": "uint256"
            },
            {
              "name": "BOD",
              "type": "uint256"
            }
          ],
          "name": "quality",
          "type": "tuple"
        }
      ],
      "payable": false,
      "stateMutability": "view",
      "type": "function",
      "signature": "0xeaf52964"
    },
    {
      "inputs": [],
      "payable": false,
      "stateMutability": "nonpayable",
      "type": "constructor",
      "signature": "constructor"
    },
    {
      "constant": false,
      "inputs": [
        {
          "name": "_meterID",
          "type": "address"
        },
        {
          "name": "_orgID",
          "type": "address"
        },
        {
          "name": "_meterType",
          "type": "string"
        },
        {
          "name": "_reportedAt",
          "type": "string"
        }
      ],
      "name": "addIOTDevice",
      "outputs": [],
      "payable": false,
      "stateMutability": "nonpayable",
      "type": "function",
      "signature": "0x8bd7df31"
    },
    {
      "constant": false,
      "inputs": [
        {
          "name": "_meterID",
          "type": "address"
        },
        {
          "name": "startTime",
          "type": "string"
        },
        {
          "name": "stopTime",
          "type": "string"
        },
        {
          "name": "quantity",
          "type": "uint256"
        },
        {
          "name": "_pH",
          "type": "uint256"
        },
        {
          "name": "_solids",
          "type": "uint256"
        },
        {
          "name": "_hardness",
          "type": "uint256"
        },
        {
          "name": "_oil",
          "type": "uint256"
        },
        {
          "name": "_BOD",
          "type": "uint256"
        }
      ],
      "name": "addReadings",
      "outputs": [],
      "payable": false,
      "stateMutability": "nonpayable",
      "type": "function",
      "signature": "0xc80b5896"
    },
    {
      "constant": false,
      "inputs": [
        {
          "name": "_pH",
          "type": "uint256"
        },
        {
          "name": "_solids",
          "type": "uint256"
        },
        {
          "name": "_hardness",
          "type": "uint256"
        },
        {
          "name": "_oil",
          "type": "uint256"
        },
        {
          "name": "_BOD",
          "type": "uint256"
        },
        {
          "name": "_minPercentageIndus",
          "type": "uint256"
        }
      ],
      "name": "defineWaterSpecsIndus",
      "outputs": [],
      "payable": false,
      "stateMutability": "nonpayable",
      "type": "function",
      "signature": "0xe52c2b38"
    },
    {
      "constant": false,
      "inputs": [
        {
          "name": "_pH",
          "type": "uint256"
        },
        {
          "name": "_solids",
          "type": "uint256"
        },
        {
          "name": "_hardness",
          "type": "uint256"
        },
        {
          "name": "_oil",
          "type": "uint256"
        },
        {
          "name": "_BOD",
          "type": "uint256"
        },
        {
          "name": "_minPercentageLocal",
          "type": "uint256"
        }
      ],
      "name": "defineWaterSpecsLocal",
      "outputs": [],
      "payable": false,
      "stateMutability": "nonpayable",
      "type": "function",
      "signature": "0x28d2bf92"
    }
  ],
  "bytecode": "0x608060405234801561001057600080fd5b50336000806101000a81548173ffffffffffffffffffffffffffffffffffffffff021916908373ffffffffffffffffffffffffffffffffffffffff160217905550611262806100606000396000f3fe6080604052600436106100ba576000357c0100000000000000000000000000000000000000000000000000000000900463ffffffff16806324bac64a146100bf57806328d2bf92146100ea578063602aa95d14610113578063788dd418146101525780637d258e8e1461018f5780638bd7df31146101be57806398c6305a146101e7578063aae1b1b014610212578063c80b589614610241578063dd8fee141461026a578063e52c2b3814610295578063eaf52964146102be575b600080fd5b3480156100cb57600080fd5b506100d46102fe565b6040516100e191906110ab565b60405180910390f35b3480156100f657600080fd5b50610111600480360361010c9190810190610eb2565b610304565b005b34801561011f57600080fd5b5061013a60048036036101359190810190610c9b565b6103cd565b60405161014993929190611012565b60405180910390f35b34801561015e57600080fd5b5061017960048036036101749190810190610e89565b610547565b6040516101869190610ff7565b60405180910390f35b34801561019b57600080fd5b506101a4610585565b6040516101b59594939291906110c6565b60405180910390f35b3480156101ca57600080fd5b506101e560048036036101e09190810190610cc4565b6105a9565b005b3480156101f357600080fd5b506101fc610765565b60405161020991906110ab565b60405180910390f35b34801561021e57600080fd5b5061022761076b565b6040516102389594939291906110c6565b60405180910390f35b34801561024d57600080fd5b5061026860048036036102639190810190610d57565b61078f565b005b34801561027657600080fd5b5061027f6108d1565b60405161028c9190610ff7565b60405180910390f35b3480156102a157600080fd5b506102bc60048036036102b79190810190610eb2565b6108f6565b005b3480156102ca57600080fd5b506102e560048036036102e09190810190610e4d565b6109bf565b6040516102f59493929190611057565b60405180910390f35b60025481565b6000809054906101000a900473ffffffffffffffffffffffffffffffffffffffff1673ffffffffffffffffffffffffffffffffffffffff163373ffffffffffffffffffffffffffffffffffffffff1614151561035f57600080fd5b60a060405190810160405280878152602001868152602001858152602001848152602001838152506009600082015181600001556020820151816001015560408201518160020155606082015181600301556080820151816004015590505080600281905550505050505050565b600e6020528060005260406000206000915090508060000160009054906101000a900473ffffffffffffffffffffffffffffffffffffffff1690806001018054600181600116156101000203166002900480601f01602080910402602001604051908101604052809291908181526020018280546001816001161561010002031660029004801561049f5780601f106104745761010080835404028352916020019161049f565b820191906000526020600020905b81548152906001019060200180831161048257829003601f168201915b505050505090806002018054600181600116156101000203166002900480601f01602080910402602001604051908101604052809291908181526020018280546001816001161561010002031660029004801561053d5780601f106105125761010080835404028352916020019161053d565b820191906000526020600020905b81548152906001019060200180831161052057829003601f168201915b5050505050905083565b60038181548110151561055657fe5b906000526020600020016000915054906101000a900473ffffffffffffffffffffffffffffffffffffffff1681565b60048060000154908060010154908060020154908060030154908060040154905085565b6000809054906101000a900473ffffffffffffffffffffffffffffffffffffffff1673ffffffffffffffffffffffffffffffffffffffff163373ffffffffffffffffffffffffffffffffffffffff1614151561060457600080fd5b6060604051908101604052808473ffffffffffffffffffffffffffffffffffffffff16815260200183815260200182815250600e60008673ffffffffffffffffffffffffffffffffffffffff1673ffffffffffffffffffffffffffffffffffffffff16815260200190815260200160002060008201518160000160006101000a81548173ffffffffffffffffffffffffffffffffffffffff021916908373ffffffffffffffffffffffffffffffffffffffff16021790555060208201518160010190805190602001906106d8929190610b78565b5060408201518160020190805190602001906106f5929190610b78565b5090505060038490806001815401808255809150509060018203906000526020600020016000909192909190916101000a81548173ffffffffffffffffffffffffffffffffffffffff021916908373ffffffffffffffffffffffffffffffffffffffff1602179055505050505050565b60015481565b60098060000154908060010154908060020154908060030154908060040154905085565b600f60008a73ffffffffffffffffffffffffffffffffffffffff1673ffffffffffffffffffffffffffffffffffffffff1681526020019081526020016000206080604051908101604052808a815260200189815260200188815260200160a0604051908101604052808981526020018881526020018781526020018681526020018581525081525090806001815401808255809150509060018203906000526020600020906008020160009091929091909150600082015181600001908051906020019061085e929190610b78565b50602082015181600101908051906020019061087b929190610b78565b506040820151816002015560608201518160030160008201518160000155602082015181600101556040820151816002015560608201518160030155608082015181600401555050505050505050505050505050565b6000809054906101000a900473ffffffffffffffffffffffffffffffffffffffff1681565b6000809054906101000a900473ffffffffffffffffffffffffffffffffffffffff1673ffffffffffffffffffffffffffffffffffffffff163373ffffffffffffffffffffffffffffffffffffffff1614151561095157600080fd5b60a060405190810160405280878152602001868152602001858152602001848152602001838152506004600082015181600001556020820151816001015560408201518160020155606082015181600301556080820151816004015590505080600181905550505050505050565b600f602052816000526040600020818154811015156109da57fe5b906000526020600020906008020160009150915050806000018054600181600116156101000203166002900480601f016020809104026020016040519081016040528092919081815260200182805460018160011615610100020316600290048015610a875780601f10610a5c57610100808354040283529160200191610a87565b820191906000526020600020905b815481529060010190602001808311610a6a57829003601f168201915b505050505090806001018054600181600116156101000203166002900480601f016020809104026020016040519081016040528092919081815260200182805460018160011615610100020316600290048015610b255780601f10610afa57610100808354040283529160200191610b25565b820191906000526020600020905b815481529060010190602001808311610b0857829003601f168201915b5050505050908060020154908060030160a0604051908101604052908160008201548152602001600182015481526020016002820154815260200160038201548152602001600482015481525050905084565b828054600181600116156101000203166002900490600052602060002090601f016020900481019282601f10610bb957805160ff1916838001178555610be7565b82800160010185558215610be7579182015b82811115610be6578251825591602001919060010190610bcb565b5b509050610bf49190610bf8565b5090565b610c1a91905b80821115610c16576000816000905550600101610bfe565b5090565b90565b6000610c2982356111b9565b905092915050565b600082601f8301121515610c4457600080fd5b8135610c57610c5282611146565b611119565b91508082526020830160208301858383011115610c7357600080fd5b610c7e8382846111d5565b50505092915050565b6000610c9382356111cb565b905092915050565b600060208284031215610cad57600080fd5b6000610cbb84828501610c1d565b91505092915050565b60008060008060808587031215610cda57600080fd5b6000610ce887828801610c1d565b9450506020610cf987828801610c1d565b935050604085013567ffffffffffffffff811115610d1657600080fd5b610d2287828801610c31565b925050606085013567ffffffffffffffff811115610d3f57600080fd5b610d4b87828801610c31565b91505092959194509250565b60008060008060008060008060006101208a8c031215610d7657600080fd5b6000610d848c828d01610c1d565b99505060208a013567ffffffffffffffff811115610da157600080fd5b610dad8c828d01610c31565b98505060408a013567ffffffffffffffff811115610dca57600080fd5b610dd68c828d01610c31565b9750506060610de78c828d01610c87565b9650506080610df88c828d01610c87565b95505060a0610e098c828d01610c87565b94505060c0610e1a8c828d01610c87565b93505060e0610e2b8c828d01610c87565b925050610100610e3d8c828d01610c87565b9150509295985092959850929598565b60008060408385031215610e6057600080fd5b6000610e6e85828601610c1d565b9250506020610e7f85828601610c87565b9150509250929050565b600060208284031215610e9b57600080fd5b6000610ea984828501610c87565b91505092915050565b60008060008060008060c08789031215610ecb57600080fd5b6000610ed989828a01610c87565b9650506020610eea89828a01610c87565b9550506040610efb89828a01610c87565b9450506060610f0c89828a01610c87565b9350506080610f1d89828a01610c87565b92505060a0610f2e89828a01610c87565b9150509295509295509295565b610f448161117d565b82525050565b6000610f5582611172565b808452610f698160208601602086016111e4565b610f7281611217565b602085010191505092915050565b60a082016000820151610f966000850182610fe8565b506020820151610fa96020850182610fe8565b506040820151610fbc6040850182610fe8565b506060820151610fcf6060850182610fe8565b506080820151610fe26080850182610fe8565b50505050565b610ff1816111af565b82525050565b600060208201905061100c6000830184610f3b565b92915050565b60006060820190506110276000830186610f3b565b81810360208301526110398185610f4a565b9050818103604083015261104d8184610f4a565b9050949350505050565b60006101008201905081810360008301526110728187610f4a565b905081810360208301526110868186610f4a565b90506110956040830185610fe8565b6110a26060830184610f80565b95945050505050565b60006020820190506110c06000830184610fe8565b92915050565b600060a0820190506110db6000830188610fe8565b6110e86020830187610fe8565b6110f56040830186610fe8565b6111026060830185610fe8565b61110f6080830184610fe8565b9695505050505050565b6000604051905081810181811067ffffffffffffffff8211171561113c57600080fd5b8060405250919050565b600067ffffffffffffffff82111561115d57600080fd5b601f19601f8301169050602081019050919050565b600081519050919050565b60006111888261118f565b9050919050565b600073ffffffffffffffffffffffffffffffffffffffff82169050919050565b6000819050919050565b60006111c48261118f565b9050919050565b6000819050919050565b82818337600083830152505050565b60005b838110156112025780820151818401526020810190506111e7565b83811115611211576000848401525b50505050565b6000601f19601f830116905091905056fea265627a7a723058202a84d5b8b1841d8d89f14b6392f2c1f80dfd30db3f8406eb4b1557caa00bf2c96c6578706572696d656e74616cf50037",
  "source": "pragma solidity >= 0.4.23;\npragma experimental ABIEncoderV2;\ncontract WRC {\n\n    //authority\n    address public regulator;\n    //percentage of water reuse\n    uint public minPercentageIndus;\n    uint public minPercentageLocal;\n\n    struct IOTDevice {\n        address orgID;\n        string meterType;\n        string reportedAt;\n\n    }\n    address[] public authorisedIOTs;\n    struct waterQuality {\n        uint pH;\n        uint solids;\n        uint hardness;\n        uint oil;\n        uint BOD;\n\n    }\n    waterQuality public minSpecsIndus;\n    waterQuality public minSpecsLocal;\n\n    struct Readings {\n        string startTime;\n        string stopTime;\n        uint quantity;\n        waterQuality quality;\n    }\n\n\n\n    constructor() public {\n        regulator = msg.sender;\n    }\n\n    //set a water reuse percentage\n    // function changeWRCPercentage(uint _value) public {\n    //     require(msg.sender == regulator);\n    //     minPercentage = _value;\n    // }\n\n\n    //this will track a particular IOT device info\n    mapping(address => IOTDevice) public IOTInfo;\n\n    //this will give readings of a particular device\n    mapping(address => Readings[]) public IOTReadings;\n\n\n    //adding a new IOT meter by regualtor\n    function addIOTDevice(address _meterID,address _orgID,string memory _meterType,string memory _reportedAt) public {\n        require(msg.sender == regulator);\n        IOTInfo[_meterID]=IOTDevice(_orgID,_meterType,_reportedAt);\n        authorisedIOTs.push(_meterID);\n    }\n\n    //adding Readings of a device\n    function addReadings(address _meterID,string memory startTime,string memory stopTime,uint quantity,uint _pH,uint _solids,uint _hardness,uint _oil,uint _BOD) public {\n\n\n        IOTReadings[_meterID].push(Readings(startTime,stopTime,quantity,waterQuality(_pH,_solids,_hardness,_oil,_BOD)));\n\n    }\n\n    function defineWaterSpecsIndus(uint _pH,uint _solids,uint _hardness,uint _oil,uint _BOD,uint _minPercentageIndus) public {\n        require(msg.sender == regulator);\n        minSpecsIndus = waterQuality(_pH,_solids,_hardness,_oil,_BOD);\n        minPercentageIndus = _minPercentageIndus;\n\n    }\n\n    function defineWaterSpecsLocal(uint _pH,uint _solids,uint _hardness,uint _oil,uint _BOD,uint _minPercentageLocal) public {\n        require(msg.sender == regulator);\n        minSpecsLocal = waterQuality(_pH,_solids,_hardness,_oil,_BOD);\n        minPercentageLocal = _minPercentageLocal;\n\n    }\n\n}\n",
  "sourcePath": "/home/hrishabh/js/WRC-Hackathon-App/contracts/WRC.sol",
  "compiler": {
    "name": "solc",
    "version": "0.5.0+commit.1d4f565a.Emscripten.clang"
  },
  "schemaVersion": "3.0.0",
  "updatedAt": "2019-02-22T06:51:18.117Z",
  "devdoc": {
    "methods": {}
  },
  "userdoc": {
    "methods": {}
  }
}