{
  "contractName": "WRCTokenSale",
  "abi": [
    {
      "constant": true,
      "inputs": [],
      "name": "tokensSold",
      "outputs": [
        {
          "name": "",
          "type": "uint256"
        }
      ],
      "payable": false,
      "stateMutability": "view",
      "type": "function",
      "signature": "0x518ab2a8"
    },
    {
      "constant": true,
      "inputs": [],
      "name": "tokenContract",
      "outputs": [
        {
          "name": "",
          "type": "address"
        }
      ],
      "payable": false,
      "stateMutability": "view",
      "type": "function",
      "signature": "0x55a373d6"
    },
    {
      "constant": true,
      "inputs": [],
      "name": "tokenPrice",
      "outputs": [
        {
          "name": "",
          "type": "uint256"
        }
      ],
      "payable": false,
      "stateMutability": "view",
      "type": "function",
      "signature": "0x7ff9b596"
    },
    {
      "inputs": [
        {
          "name": "_tokenContract",
          "type": "address"
        },
        {
          "name": "_tokenPrice",
          "type": "uint256"
        }
      ],
      "payable": true,
      "stateMutability": "payable",
      "type": "constructor",
      "signature": "constructor"
    },
    {
      "anonymous": false,
      "inputs": [
        {
          "indexed": false,
          "name": "_buyer",
          "type": "address"
        },
        {
          "indexed": false,
          "name": "_amount",
          "type": "uint256"
        }
      ],
      "name": "Sell",
      "type": "event",
      "signature": "0x5e5e995ce3133561afceaa51a9a154d5db228cd7525d34df5185582c18d3df09"
    },
    {
      "constant": false,
      "inputs": [
        {
          "name": "_numberOfTokens",
          "type": "uint256"
        }
      ],
      "name": "buyTokens",
      "outputs": [],
      "payable": true,
      "stateMutability": "payable",
      "type": "function",
      "signature": "0x3610724e"
    },
    {
      "constant": false,
      "inputs": [
        {
          "name": "_numberOfTokens",
          "type": "uint256"
        }
      ],
      "name": "transferToSale",
      "outputs": [
        {
          "name": "",
          "type": "bool"
        }
      ],
      "payable": true,
      "stateMutability": "payable",
      "type": "function",
      "signature": "0xfdd0ea17"
    },
    {
      "constant": false,
      "inputs": [
        {
          "name": "_a",
          "type": "address"
        },
        {
          "name": "_numberOfTokens",
          "type": "uint256"
        }
      ],
      "name": "transferToBuyer",
      "outputs": [
        {
          "name": "",
          "type": "bool"
        }
      ],
      "payable": true,
      "stateMutability": "payable",
      "type": "function",
      "signature": "0x2eda9faa"
    },
    {
      "constant": false,
      "inputs": [
        {
          "name": "_valueToDestroy",
          "type": "uint256"
        }
      ],
      "name": "destroyUsed",
      "outputs": [
        {
          "name": "",
          "type": "bool"
        }
      ],
      "payable": false,
      "stateMutability": "nonpayable",
      "type": "function",
      "signature": "0x13764f70"
    }
  ],
  "bytecode": "0x60806040526040516040806109ef8339810180604052604081101561002357600080fd5b810190808051906020019092919080519060200190929190505050336000806101000a81548173ffffffffffffffffffffffffffffffffffffffff021916908373ffffffffffffffffffffffffffffffffffffffff16021790555081600160006101000a81548173ffffffffffffffffffffffffffffffffffffffff021916908373ffffffffffffffffffffffffffffffffffffffff160217905550806002819055505050610918806100d76000396000f3fe608060405260043610610083576000357c0100000000000000000000000000000000000000000000000000000000900463ffffffff16806313764f70146100885780632eda9faa146100db5780633610724e14610141578063518ab2a81461016f57806355a373d61461019a5780637ff9b596146101f1578063fdd0ea171461021c575b600080fd5b34801561009457600080fd5b506100c1600480360360208110156100ab57600080fd5b8101908080359060200190929190505050610262565b604051808215151515815260200191505060405180910390f35b610127600480360360408110156100f157600080fd5b81019080803573ffffffffffffffffffffffffffffffffffffffff16906020019092919080359060200190929190505050610353565b604051808215151515815260200191505060405180910390f35b61016d6004803603602081101561015757600080fd5b8101908080359060200190929190505050610460565b005b34801561017b57600080fd5b506101846105df565b6040518082815260200191505060405180910390f35b3480156101a657600080fd5b506101af6105e5565b604051808273ffffffffffffffffffffffffffffffffffffffff1673ffffffffffffffffffffffffffffffffffffffff16815260200191505060405180910390f35b3480156101fd57600080fd5b5061020661060b565b6040518082815260200191505060405180910390f35b6102486004803603602081101561023257600080fd5b8101908080359060200190929190505050610611565b604051808215151515815260200191505060405180910390f35b6000600160009054906101000a900473ffffffffffffffffffffffffffffffffffffffff1673ffffffffffffffffffffffffffffffffffffffff166387d5173d336000856040518463ffffffff167c0100000000000000000000000000000000000000000000000000000000028152600401808473ffffffffffffffffffffffffffffffffffffffff1673ffffffffffffffffffffffffffffffffffffffff1681526020018381526020018281526020019350505050600060405180830381600087803b15801561033257600080fd5b505af1158015610346573d6000803e3d6000fd5b5050505060019050919050565b6000600160009054906101000a900473ffffffffffffffffffffffffffffffffffffffff1673ffffffffffffffffffffffffffffffffffffffff166357b1dbe384846040518363ffffffff167c0100000000000000000000000000000000000000000000000000000000028152600401808373ffffffffffffffffffffffffffffffffffffffff1673ffffffffffffffffffffffffffffffffffffffff16815260200182815260200192505050602060405180830381600087803b15801561041a57600080fd5b505af115801561042e573d6000803e3d6000fd5b505050506040513d602081101561044457600080fd5b8101908080519060200190929190505050506001905092915050565b600160009054906101000a900473ffffffffffffffffffffffffffffffffffffffff1673ffffffffffffffffffffffffffffffffffffffff16632313c3d833836040518363ffffffff167c0100000000000000000000000000000000000000000000000000000000028152600401808373ffffffffffffffffffffffffffffffffffffffff1673ffffffffffffffffffffffffffffffffffffffff16815260200182815260200192505050602060405180830381600087803b15801561052557600080fd5b505af1158015610539573d6000803e3d6000fd5b505050506040513d602081101561054f57600080fd5b810190808051906020019092919050505050806003600082825401925050819055507f5e5e995ce3133561afceaa51a9a154d5db228cd7525d34df5185582c18d3df093382604051808373ffffffffffffffffffffffffffffffffffffffff1673ffffffffffffffffffffffffffffffffffffffff1681526020018281526020019250505060405180910390a150565b60035481565b600160009054906101000a900473ffffffffffffffffffffffffffffffffffffffff1681565b60025481565b600081600160009054906101000a900473ffffffffffffffffffffffffffffffffffffffff1673ffffffffffffffffffffffffffffffffffffffff1663264b2b8e336040518263ffffffff167c0100000000000000000000000000000000000000000000000000000000028152600401808273ffffffffffffffffffffffffffffffffffffffff1673ffffffffffffffffffffffffffffffffffffffff16815260200191505060206040518083038186803b1580156106cf57600080fd5b505afa1580156106e3573d6000803e3d6000fd5b505050506040513d60208110156106f957600080fd5b81019080805190602001909291905050501015151561071757600080fd5b600160009054906101000a900473ffffffffffffffffffffffffffffffffffffffff1673ffffffffffffffffffffffffffffffffffffffff166387d5173d308460006040518463ffffffff167c0100000000000000000000000000000000000000000000000000000000028152600401808473ffffffffffffffffffffffffffffffffffffffff1673ffffffffffffffffffffffffffffffffffffffff1681526020018381526020018281526020019350505050600060405180830381600087803b1580156107e557600080fd5b505af11580156107f9573d6000803e3d6000fd5b50505050600160009054906101000a900473ffffffffffffffffffffffffffffffffffffffff1673ffffffffffffffffffffffffffffffffffffffff166387d5173d336000856040518463ffffffff167c0100000000000000000000000000000000000000000000000000000000028152600401808473ffffffffffffffffffffffffffffffffffffffff1673ffffffffffffffffffffffffffffffffffffffff1681526020018381526020018281526020019350505050600060405180830381600087803b1580156108cb57600080fd5b505af11580156108df573d6000803e3d6000fd5b505050506001905091905056fea165627a7a72305820a039962afd1a9ef7c7bf2d229ee5101aaff4c9881b9b827f4477e7fbc70fbd260029",
  "source": "pragma solidity >= 0.4.23;\nimport './WRCToken.sol';\ncontract WRCTokenSale {\n    address admin;\n    WRCToken public tokenContract;\n    uint256 public tokenPrice;\n    uint256 public tokensSold;\n\n    event Sell(address _buyer, uint256 _amount);\n\n    constructor(WRCToken _tokenContract, uint256 _tokenPrice) public payable {\n        admin = msg.sender;\n        tokenContract = _tokenContract;\n        tokenPrice = _tokenPrice;\n    }\n\n    function multiply(uint x, uint y) internal pure returns (uint z) {\n        require(y == 0 || (z = x * y) / y == x);\n    }\n\n    function buyTokens(uint256 _numberOfTokens) public payable {\n        // require(msg.value == multiply(_numberOfTokens, tokenPrice));\n        // require(tokenContract.balanceOf(address(this)) >= _numberOfTokens);\n        tokenContract.transferADMIN(msg.sender, _numberOfTokens);\n\n        tokensSold += _numberOfTokens;\n        emit Sell(msg.sender, _numberOfTokens);\n    }\n\n    function transferToSale(uint256 _numberOfTokens) public payable returns(bool){\n        // require(tokenContract.balanceOf[msg.sender] >= _numberOfTokens);\n        // tokenContract.transfers(admin , _numberOfTokens);\n        require(tokenContract.returnBalance(msg.sender) >= _numberOfTokens);\n        tokenContract.updateBalance(address(this), _numberOfTokens, 0);\n        tokenContract.updateBalance(msg.sender, 0,  _numberOfTokens);\n        return true;\n    }\n\n\n    function transferToBuyer(address _a, uint256 _numberOfTokens) public payable returns(bool){\n        // require(tokenContract.balanceOf[msg.sender] >= _numberOfTokens);\n        tokenContract.transfers(_a, _numberOfTokens);\n        return true;\n    }\n\n    function destroyUsed(uint256 _valueToDestroy) public returns(bool){\n        // updating token spent to zero.\n        tokenContract.updateBalance(msg.sender, 0, _valueToDestroy);\n\n        return true;\n    }\n}\n",
  "sourcePath": "/home/hrishabh/js/WRC-Hackathon-App/contracts/WRCTokenSale.sol",
  "compiler": {
    "name": "solc",
    "version": "0.5.0+commit.1d4f565a.Emscripten.clang"
  },
  "schemaVersion": "3.0.0",
  "updatedAt": "2019-02-23T18:57:32.995Z",
  "devdoc": {
    "methods": {}
  },
  "userdoc": {
    "methods": {}
  }
}