{
  "contractName": "WRCToken",
  "abi": [
    {
      "constant": true,
      "inputs": [],
      "name": "name",
      "outputs": [
        {
          "name": "",
          "type": "string"
        }
      ],
      "payable": false,
      "stateMutability": "view",
      "type": "function",
      "signature": "0x06fdde03"
    },
    {
      "constant": true,
      "inputs": [],
      "name": "totalSupply",
      "outputs": [
        {
          "name": "",
          "type": "uint256"
        }
      ],
      "payable": false,
      "stateMutability": "view",
      "type": "function",
      "signature": "0x18160ddd"
    },
    {
      "constant": true,
      "inputs": [
        {
          "name": "",
          "type": "address"
        }
      ],
      "name": "balanceOf",
      "outputs": [
        {
          "name": "",
          "type": "uint256"
        }
      ],
      "payable": false,
      "stateMutability": "view",
      "type": "function",
      "signature": "0x70a08231"
    },
    {
      "constant": true,
      "inputs": [],
      "name": "symbol",
      "outputs": [
        {
          "name": "",
          "type": "string"
        }
      ],
      "payable": false,
      "stateMutability": "view",
      "type": "function",
      "signature": "0x95d89b41"
    },
    {
      "inputs": [
        {
          "name": "_initialSupply",
          "type": "uint256"
        }
      ],
      "payable": true,
      "stateMutability": "payable",
      "type": "constructor",
      "signature": "constructor"
    },
    {
      "anonymous": false,
      "inputs": [
        {
          "indexed": true,
          "name": "_from",
          "type": "address"
        },
        {
          "indexed": true,
          "name": "_to",
          "type": "address"
        },
        {
          "indexed": false,
          "name": "_value",
          "type": "uint256"
        }
      ],
      "name": "Transfer",
      "type": "event",
      "signature": "0xddf252ad1be2c89b69c2b068fc378daa952ba7f163c4a11628f55a4df523b3ef"
    },
    {
      "constant": false,
      "inputs": [
        {
          "name": "_to",
          "type": "address"
        },
        {
          "name": "_value",
          "type": "uint256"
        }
      ],
      "name": "transferADMIN",
      "outputs": [
        {
          "name": "success",
          "type": "bool"
        }
      ],
      "payable": false,
      "stateMutability": "nonpayable",
      "type": "function",
      "signature": "0x2313c3d8"
    },
    {
      "constant": false,
      "inputs": [
        {
          "name": "_to",
          "type": "address"
        },
        {
          "name": "_value",
          "type": "uint256"
        }
      ],
      "name": "transfers",
      "outputs": [
        {
          "name": "success",
          "type": "bool"
        }
      ],
      "payable": false,
      "stateMutability": "nonpayable",
      "type": "function",
      "signature": "0x57b1dbe3"
    },
    {
      "constant": false,
      "inputs": [
        {
          "name": "_a",
          "type": "address"
        },
        {
          "name": "_plusValue",
          "type": "uint256"
        },
        {
          "name": "_minusValue",
          "type": "uint256"
        }
      ],
      "name": "updateBalance",
      "outputs": [],
      "payable": false,
      "stateMutability": "nonpayable",
      "type": "function",
      "signature": "0x87d5173d"
    },
    {
      "constant": true,
      "inputs": [
        {
          "name": "_a",
          "type": "address"
        }
      ],
      "name": "returnBalance",
      "outputs": [
        {
          "name": "",
          "type": "uint256"
        }
      ],
      "payable": false,
      "stateMutability": "view",
      "type": "function",
      "signature": "0x264b2b8e"
    }
  ],
  "bytecode": "0x60806040526040805190810160405280600981526020017f57524320546f6b656e00000000000000000000000000000000000000000000008152506000908051906020019061004f92919061011d565b506040805190810160405280600381526020017f57524300000000000000000000000000000000000000000000000000000000008152506001908051906020019061009b92919061011d565b50604051602080610a6a833981018060405260208110156100bb57600080fd5b810190808051906020019092919050505080600360003373ffffffffffffffffffffffffffffffffffffffff1673ffffffffffffffffffffffffffffffffffffffff1681526020019081526020016000208190555080600281905550506101c2565b828054600181600116156101000203166002900490600052602060002090601f016020900481019282601f1061015e57805160ff191683800117855561018c565b8280016001018555821561018c579182015b8281111561018b578251825591602001919060010190610170565b5b509050610199919061019d565b5090565b6101bf91905b808211156101bb5760008160009055506001016101a3565b5090565b90565b610899806101d16000396000f3fe60806040526004361061008e576000357c0100000000000000000000000000000000000000000000000000000000900463ffffffff16806306fdde031461009357806318160ddd146101235780632313c3d81461014e578063264b2b8e146101c157806357b1dbe31461022657806370a082311461029957806387d5173d146102fe57806395d89b4114610363575b600080fd5b34801561009f57600080fd5b506100a86103f3565b6040518080602001828103825283818151815260200191508051906020019080838360005b838110156100e85780820151818401526020810190506100cd565b50505050905090810190601f1680156101155780820380516001836020036101000a031916815260200191505b509250505060405180910390f35b34801561012f57600080fd5b50610138610491565b6040518082815260200191505060405180910390f35b34801561015a57600080fd5b506101a76004803603604081101561017157600080fd5b81019080803573ffffffffffffffffffffffffffffffffffffffff16906020019092919080359060200190929190505050610497565b604051808215151515815260200191505060405180910390f35b3480156101cd57600080fd5b50610210600480360360208110156101e457600080fd5b81019080803573ffffffffffffffffffffffffffffffffffffffff169060200190929190505050610576565b6040518082815260200191505060405180910390f35b34801561023257600080fd5b5061027f6004803603604081101561024957600080fd5b81019080803573ffffffffffffffffffffffffffffffffffffffff169060200190929190803590602001909291905050506105bf565b604051808215151515815260200191505060405180910390f35b3480156102a557600080fd5b506102e8600480360360208110156102bc57600080fd5b81019080803573ffffffffffffffffffffffffffffffffffffffff169060200190929190505050610718565b6040518082815260200191505060405180910390f35b34801561030a57600080fd5b506103616004803603606081101561032157600080fd5b81019080803573ffffffffffffffffffffffffffffffffffffffff1690602001909291908035906020019092919080359060200190929190505050610730565b005b34801561036f57600080fd5b506103786107cf565b6040518080602001828103825283818151815260200191508051906020019080838360005b838110156103b857808201518184015260208101905061039d565b50505050905090810190601f1680156103e55780820380516001836020036101000a031916815260200191505b509250505060405180910390f35b60008054600181600116156101000203166002900480601f0160208091040260200160405190810160405280929190818152602001828054600181600116156101000203166002900480156104895780601f1061045e57610100808354040283529160200191610489565b820191906000526020600020905b81548152906001019060200180831161046c57829003601f168201915b505050505081565b60025481565b600081600254101515156104aa57600080fd5b81600360008573ffffffffffffffffffffffffffffffffffffffff1673ffffffffffffffffffffffffffffffffffffffff16815260200190815260200160002060008282540192505081905550816002600082825403925050819055508273ffffffffffffffffffffffffffffffffffffffff163373ffffffffffffffffffffffffffffffffffffffff167fddf252ad1be2c89b69c2b068fc378daa952ba7f163c4a11628f55a4df523b3ef846040518082815260200191505060405180910390a36001905092915050565b6000600360008373ffffffffffffffffffffffffffffffffffffffff1673ffffffffffffffffffffffffffffffffffffffff168152602001908152602001600020549050919050565b600081600360003373ffffffffffffffffffffffffffffffffffffffff1673ffffffffffffffffffffffffffffffffffffffff168152602001908152602001600020541015151561060f57600080fd5b81600360003373ffffffffffffffffffffffffffffffffffffffff1673ffffffffffffffffffffffffffffffffffffffff1681526020019081526020016000206000828254039250508190555081600360008573ffffffffffffffffffffffffffffffffffffffff1673ffffffffffffffffffffffffffffffffffffffff168152602001908152602001600020600082825401925050819055508273ffffffffffffffffffffffffffffffffffffffff163373ffffffffffffffffffffffffffffffffffffffff167fddf252ad1be2c89b69c2b068fc378daa952ba7f163c4a11628f55a4df523b3ef846040518082815260200191505060405180910390a36001905092915050565b60036020528060005260406000206000915090505481565b81600360008573ffffffffffffffffffffffffffffffffffffffff1673ffffffffffffffffffffffffffffffffffffffff1681526020019081526020016000206000828254019250508190555080600360008573ffffffffffffffffffffffffffffffffffffffff1673ffffffffffffffffffffffffffffffffffffffff16815260200190815260200160002060008282540392505081905550505050565b60018054600181600116156101000203166002900480601f0160208091040260200160405190810160405280929190818152602001828054600181600116156101000203166002900480156108655780601f1061083a57610100808354040283529160200191610865565b820191906000526020600020905b81548152906001019060200180831161084857829003601f168201915b50505050508156fea165627a7a72305820d47dca0da6a17f21ca693914b3fbad6026280c8454c9e9b3239580abe3b3f1490029",
  "source": "pragma solidity >= 0.4.23;\n\ncontract WRCToken{\n\n\n  string public name = \"WRC Token\";\n  string public symbol = \"WRC\";\n\n  uint256 public totalSupply;\n\n\n  event Transfer (address indexed _from,address indexed _to,uint256 _value);\n\n\n\n  mapping(address => uint256) public balanceOf;\n\n  constructor (uint256 _initialSupply) public payable{\n    balanceOf[msg.sender] = _initialSupply;\n    totalSupply = _initialSupply;\n  }\n\n    function transferADMIN(address _to, uint256 _value) external returns (bool success){\n\n        require(totalSupply >= _value);\n\n        // balanceOf[msg.sender] -= _value;\n        balanceOf[_to] += _value;\n\n        // if(msg.sender == address(this)){\n            totalSupply -= _value;\n\n\n        emit Transfer(msg.sender, _to, _value);\n\n        return true;\n      }\n\n  function transfers(address _to, uint256 _value) external returns (bool success){\n\n    require(balanceOf[msg.sender] >= _value);\n\n    balanceOf[msg.sender] -= _value;\n    balanceOf[_to] += _value;\n\n    /* // if(msg.sender == address(this)){\n        totalSupply -= _value; */\n\n    emit Transfer(msg.sender, _to, _value);\n\n    return true;\n  }\n\n  function updateBalance(address _a, uint256 _plusValue, uint256 _minusValue) public {\n      balanceOf[_a] += _plusValue;\n      balanceOf[_a] -= _minusValue;\n  }\n\n  function returnBalance(address _a) external view returns(uint256){\n      return balanceOf[_a];\n  }\n}\n",
  "sourcePath": "/home/hrishabh/js/WRC-Hackathon-App/contracts/WRCToken.sol",
  "compiler": {
    "name": "solc",
    "version": "0.5.0+commit.1d4f565a.Emscripten.clang"
  },
  "schemaVersion": "3.0.0",
  "updatedAt": "2019-02-25T08:41:01.143Z",
  "devdoc": {
    "methods": {}
  },
  "userdoc": {
    "methods": {}
  }
}